{
  "contractName": "MemoryToken",
  "abi": [
    {
      "inputs": [
        {
          "internalType": "contract dBank",
          "name": "_bank",
          "type": "address"
        }
      ],
      "stateMutability": "nonpayable",
      "type": "constructor"
    },
    {
      "anonymous": false,
      "inputs": [
        {
          "indexed": true,
          "internalType": "address",
          "name": "owner",
          "type": "address"
        },
        {
          "indexed": true,
          "internalType": "address",
          "name": "approved",
          "type": "address"
        },
        {
          "indexed": true,
          "internalType": "uint256",
          "name": "tokenId",
          "type": "uint256"
        }
      ],
      "name": "Approval",
      "type": "event"
    },
    {
      "anonymous": false,
      "inputs": [
        {
          "indexed": true,
          "internalType": "address",
          "name": "owner",
          "type": "address"
        },
        {
          "indexed": true,
          "internalType": "address",
          "name": "operator",
          "type": "address"
        },
        {
          "indexed": false,
          "internalType": "bool",
          "name": "approved",
          "type": "bool"
        }
      ],
      "name": "ApprovalForAll",
      "type": "event"
    },
    {
      "anonymous": false,
      "inputs": [
        {
          "indexed": true,
          "internalType": "address",
          "name": "from",
          "type": "address"
        },
        {
          "indexed": true,
          "internalType": "address",
          "name": "to",
          "type": "address"
        },
        {
          "indexed": true,
          "internalType": "uint256",
          "name": "tokenId",
          "type": "uint256"
        }
      ],
      "name": "Transfer",
      "type": "event"
    },
    {
      "inputs": [
        {
          "internalType": "address",
          "name": "to",
          "type": "address"
        },
        {
          "internalType": "uint256",
          "name": "tokenId",
          "type": "uint256"
        }
      ],
      "name": "approve",
      "outputs": [],
      "stateMutability": "nonpayable",
      "type": "function"
    },
    {
      "inputs": [
        {
          "internalType": "address",
          "name": "owner",
          "type": "address"
        }
      ],
      "name": "balanceOf",
      "outputs": [
        {
          "internalType": "uint256",
          "name": "",
          "type": "uint256"
        }
      ],
      "stateMutability": "view",
      "type": "function",
      "constant": true
    },
    {
      "inputs": [
        {
          "internalType": "uint256",
          "name": "tokenId",
          "type": "uint256"
        }
      ],
      "name": "getApproved",
      "outputs": [
        {
          "internalType": "address",
          "name": "",
          "type": "address"
        }
      ],
      "stateMutability": "view",
      "type": "function",
      "constant": true
    },
    {
      "inputs": [
        {
          "internalType": "address",
          "name": "owner",
          "type": "address"
        },
        {
          "internalType": "address",
          "name": "operator",
          "type": "address"
        }
      ],
      "name": "isApprovedForAll",
      "outputs": [
        {
          "internalType": "bool",
          "name": "",
          "type": "bool"
        }
      ],
      "stateMutability": "view",
      "type": "function",
      "constant": true
    },
    {
      "inputs": [
        {
          "internalType": "address",
          "name": "",
          "type": "address"
        }
      ],
      "name": "minted",
      "outputs": [
        {
          "internalType": "bool",
          "name": "",
          "type": "bool"
        }
      ],
      "stateMutability": "view",
      "type": "function",
      "constant": true
    },
    {
      "inputs": [],
      "name": "name",
      "outputs": [
        {
          "internalType": "string",
          "name": "",
          "type": "string"
        }
      ],
      "stateMutability": "view",
      "type": "function",
      "constant": true
    },
    {
      "inputs": [
        {
          "internalType": "uint256",
          "name": "tokenId",
          "type": "uint256"
        }
      ],
      "name": "ownerOf",
      "outputs": [
        {
          "internalType": "address",
          "name": "",
          "type": "address"
        }
      ],
      "stateMutability": "view",
      "type": "function",
      "constant": true
    },
    {
      "inputs": [
        {
          "internalType": "address",
          "name": "from",
          "type": "address"
        },
        {
          "internalType": "address",
          "name": "to",
          "type": "address"
        },
        {
          "internalType": "uint256",
          "name": "tokenId",
          "type": "uint256"
        }
      ],
      "name": "safeTransferFrom",
      "outputs": [],
      "stateMutability": "nonpayable",
      "type": "function"
    },
    {
      "inputs": [
        {
          "internalType": "address",
          "name": "from",
          "type": "address"
        },
        {
          "internalType": "address",
          "name": "to",
          "type": "address"
        },
        {
          "internalType": "uint256",
          "name": "tokenId",
          "type": "uint256"
        },
        {
          "internalType": "bytes",
          "name": "_data",
          "type": "bytes"
        }
      ],
      "name": "safeTransferFrom",
      "outputs": [],
      "stateMutability": "nonpayable",
      "type": "function"
    },
    {
      "inputs": [
        {
          "internalType": "address",
          "name": "operator",
          "type": "address"
        },
        {
          "internalType": "bool",
          "name": "approved",
          "type": "bool"
        }
      ],
      "name": "setApprovalForAll",
      "outputs": [],
      "stateMutability": "nonpayable",
      "type": "function"
    },
    {
      "inputs": [
        {
          "internalType": "bytes4",
          "name": "interfaceId",
          "type": "bytes4"
        }
      ],
      "name": "supportsInterface",
      "outputs": [
        {
          "internalType": "bool",
          "name": "",
          "type": "bool"
        }
      ],
      "stateMutability": "view",
      "type": "function",
      "constant": true
    },
    {
      "inputs": [],
      "name": "symbol",
      "outputs": [
        {
          "internalType": "string",
          "name": "",
          "type": "string"
        }
      ],
      "stateMutability": "view",
      "type": "function",
      "constant": true
    },
    {
      "inputs": [
        {
          "internalType": "uint256",
          "name": "tokenId",
          "type": "uint256"
        }
      ],
      "name": "tokenURI",
      "outputs": [
        {
          "internalType": "string",
          "name": "",
          "type": "string"
        }
      ],
      "stateMutability": "view",
      "type": "function",
      "constant": true
    },
    {
      "inputs": [
        {
          "internalType": "address",
          "name": "from",
          "type": "address"
        },
        {
          "internalType": "address",
          "name": "to",
          "type": "address"
        },
        {
          "internalType": "uint256",
          "name": "tokenId",
          "type": "uint256"
        }
      ],
      "name": "transferFrom",
      "outputs": [],
      "stateMutability": "nonpayable",
      "type": "function"
    },
    {
      "inputs": [
        {
          "internalType": "address",
          "name": "_to",
          "type": "address"
        },
        {
          "internalType": "string",
          "name": "_tokenURI",
          "type": "string"
        }
      ],
      "name": "mint",
      "outputs": [
        {
          "internalType": "bool",
          "name": "",
          "type": "bool"
        }
      ],
      "stateMutability": "nonpayable",
      "type": "function"
    }
  ],
  "bytecode": "0x608060405260006008553480156200001657600080fd5b5060405162002ff838038062002ff883398181016040528101906200003c9190620001eb565b6040518060400160405280600781526020017f426c6f636b6965000000000000000000000000000000000000000000000000008152506040518060400160405280600381526020017f424c4300000000000000000000000000000000000000000000000000000000008152508160009080519060200190620000c092919062000124565b508060019080519060200190620000d992919062000124565b50505080600760006101000a81548173ffffffffffffffffffffffffffffffffffffffff021916908373ffffffffffffffffffffffffffffffffffffffff16021790555050620002de565b82805462000132906200025f565b90600052602060002090601f016020900481019282620001565760008555620001a2565b82601f106200017157805160ff1916838001178555620001a2565b82800160010185558215620001a2579182015b82811115620001a157825182559160200191906001019062000184565b5b509050620001b19190620001b5565b5090565b5b80821115620001d0576000816000905550600101620001b6565b5090565b600081519050620001e581620002c4565b92915050565b600060208284031215620001fe57600080fd5b60006200020e84828501620001d4565b91505092915050565b600062000224826200023f565b9050919050565b6000620002388262000217565b9050919050565b600073ffffffffffffffffffffffffffffffffffffffff82169050919050565b600060028204905060018216806200027857607f821691505b602082108114156200028f576200028e62000295565b5b50919050565b7f4e487b7100000000000000000000000000000000000000000000000000000000600052602260045260246000fd5b620002cf816200022b565b8114620002db57600080fd5b50565b612d0a80620002ee6000396000f3fe608060405234801561001057600080fd5b50600436106100f55760003560e01c80636352211e11610097578063b88d4fde11610066578063b88d4fde14610296578063c87b56dd146102b2578063d0def521146102e2578063e985e9c514610312576100f5565b80636352211e146101fc57806370a082311461022c57806395d89b411461025c578063a22cb4651461027a576100f5565b8063095ea7b3116100d3578063095ea7b3146101785780631e7269c51461019457806323b872dd146101c457806342842e0e146101e0576100f5565b806301ffc9a7146100fa57806306fdde031461012a578063081812fc14610148575b600080fd5b610114600480360381019061010f9190611e15565b610342565b6040516101219190612642565b60405180910390f35b610132610424565b60405161013f919061265d565b60405180910390f35b610162600480360381019061015d9190611e67565b6104b6565b60405161016f91906125db565b60405180910390f35b610192600480360381019061018d9190611dd9565b61053b565b005b6101ae60048036038101906101a99190611c1a565b610653565b6040516101bb9190612642565b60405180910390f35b6101de60048036038101906101d99190611c7f565b610673565b005b6101fa60048036038101906101f59190611c7f565b6106d3565b005b61021660048036038101906102119190611e67565b6106f3565b60405161022391906125db565b60405180910390f35b61024660048036038101906102419190611c1a565b6107a5565b604051610253919061289f565b60405180910390f35b61026461085d565b604051610271919061265d565b60405180910390f35b610294600480360381019061028f9190611d49565b6108ef565b005b6102b060048036038101906102ab9190611cce565b610905565b005b6102cc60048036038101906102c79190611e67565b610967565b6040516102d9919061265d565b60405180910390f35b6102fc60048036038101906102f79190611d85565b610ab9565b6040516103099190612642565b60405180910390f35b61032c60048036038101906103279190611c43565b610c9f565b6040516103399190612642565b60405180910390f35b60007f80ac58cd000000000000000000000000000000000000000000000000000000007bffffffffffffffffffffffffffffffffffffffffffffffffffffffff1916827bffffffffffffffffffffffffffffffffffffffffffffffffffffffff1916148061040d57507f5b5e139f000000000000000000000000000000000000000000000000000000007bffffffffffffffffffffffffffffffffffffffffffffffffffffffff1916827bffffffffffffffffffffffffffffffffffffffffffffffffffffffff1916145b8061041d575061041c82610d33565b5b9050919050565b60606000805461043390612aff565b80601f016020809104026020016040519081016040528092919081815260200182805461045f90612aff565b80156104ac5780601f10610481576101008083540402835291602001916104ac565b820191906000526020600020905b81548152906001019060200180831161048f57829003601f168201915b5050505050905090565b60006104c182610d9d565b610500576040517f08c379a00000000000000000000000000000000000000000000000000000000081526004016104f7906127ff565b60405180910390fd5b6004600083815260200190815260200160002060009054906101000a900473ffffffffffffffffffffffffffffffffffffffff169050919050565b6000610546826106f3565b90508073ffffffffffffffffffffffffffffffffffffffff168373ffffffffffffffffffffffffffffffffffffffff1614156105b7576040517f08c379a00000000000000000000000000000000000000000000000000000000081526004016105ae9061285f565b60405180910390fd5b8073ffffffffffffffffffffffffffffffffffffffff166105d6610e09565b73ffffffffffffffffffffffffffffffffffffffff1614806106055750610604816105ff610e09565b610c9f565b5b610644576040517f08c379a000000000000000000000000000000000000000000000000000000000815260040161063b9061273f565b60405180910390fd5b61064e8383610e11565b505050565b60096020528060005260406000206000915054906101000a900460ff1681565b61068461067e610e09565b82610eca565b6106c3576040517f08c379a00000000000000000000000000000000000000000000000000000000081526004016106ba9061287f565b60405180910390fd5b6106ce838383610fa8565b505050565b6106ee83838360405180602001604052806000815250610905565b505050565b6000806002600084815260200190815260200160002060009054906101000a900473ffffffffffffffffffffffffffffffffffffffff169050600073ffffffffffffffffffffffffffffffffffffffff168173ffffffffffffffffffffffffffffffffffffffff16141561079c576040517f08c379a00000000000000000000000000000000000000000000000000000000081526004016107939061277f565b60405180910390fd5b80915050919050565b60008073ffffffffffffffffffffffffffffffffffffffff168273ffffffffffffffffffffffffffffffffffffffff161415610816576040517f08c379a000000000000000000000000000000000000000000000000000000000815260040161080d9061275f565b60405180910390fd5b600360008373ffffffffffffffffffffffffffffffffffffffff1673ffffffffffffffffffffffffffffffffffffffff168152602001908152602001600020549050919050565b60606001805461086c90612aff565b80601f016020809104026020016040519081016040528092919081815260200182805461089890612aff565b80156108e55780601f106108ba576101008083540402835291602001916108e5565b820191906000526020600020905b8154815290600101906020018083116108c857829003601f168201915b5050505050905090565b6109016108fa610e09565b8383611204565b5050565b610916610910610e09565b83610eca565b610955576040517f08c379a000000000000000000000000000000000000000000000000000000000815260040161094c9061287f565b60405180910390fd5b61096184848484611371565b50505050565b606061097282610d9d565b6109b1576040517f08c379a00000000000000000000000000000000000000000000000000000000081526004016109a8906127df565b60405180910390fd5b60006006600084815260200190815260200160002080546109d190612aff565b80601f01602080910402602001604051908101604052809291908181526020018280546109fd90612aff565b8015610a4a5780601f10610a1f57610100808354040283529160200191610a4a565b820191906000526020600020905b815481529060010190602001808311610a2d57829003601f168201915b505050505090506000610a5b6113cd565b9050600081511415610a71578192505050610ab4565b600082511115610aa6578082604051602001610a8e9291906125b7565b60405160208183030381529060405292505050610ab4565b610aaf846113e4565b925050505b919050565b6000662386f26fc10000600760009054906101000a900473ffffffffffffffffffffffffffffffffffffffff1673ffffffffffffffffffffffffffffffffffffffff16635f515226856040518263ffffffff1660e01b8152600401610b1e91906125db565b60206040518083038186803b158015610b3657600080fd5b505afa158015610b4a573d6000803e3d6000fd5b505050506040513d601f19601f82011682018060405250810190610b6e9190611e90565b1015610baf576040517f08c379a0000000000000000000000000000000000000000000000000000000008152600401610ba69061267f565b60405180910390fd5b60011515600960008573ffffffffffffffffffffffffffffffffffffffff1673ffffffffffffffffffffffffffffffffffffffff16815260200190815260200160002060009054906101000a900460ff1615151415610c0d57600080fd5b600060086000815480929190610c2290612b31565b919050559050610c32848261148b565b610c3c8184611659565b6001600960008673ffffffffffffffffffffffffffffffffffffffff1673ffffffffffffffffffffffffffffffffffffffff16815260200190815260200160002060006101000a81548160ff021916908315150217905550600191505092915050565b6000600560008473ffffffffffffffffffffffffffffffffffffffff1673ffffffffffffffffffffffffffffffffffffffff16815260200190815260200160002060008373ffffffffffffffffffffffffffffffffffffffff1673ffffffffffffffffffffffffffffffffffffffff16815260200190815260200160002060009054906101000a900460ff16905092915050565b60007f01ffc9a7000000000000000000000000000000000000000000000000000000007bffffffffffffffffffffffffffffffffffffffffffffffffffffffff1916827bffffffffffffffffffffffffffffffffffffffffffffffffffffffff1916149050919050565b60008073ffffffffffffffffffffffffffffffffffffffff166002600084815260200190815260200160002060009054906101000a900473ffffffffffffffffffffffffffffffffffffffff1673ffffffffffffffffffffffffffffffffffffffff1614159050919050565b600033905090565b816004600083815260200190815260200160002060006101000a81548173ffffffffffffffffffffffffffffffffffffffff021916908373ffffffffffffffffffffffffffffffffffffffff160217905550808273ffffffffffffffffffffffffffffffffffffffff16610e84836106f3565b73ffffffffffffffffffffffffffffffffffffffff167f8c5be1e5ebec7d5bd14f71427d1e84f3dd0314c0f7b2291e5b200ac8c7c3b92560405160405180910390a45050565b6000610ed582610d9d565b610f14576040517f08c379a0000000000000000000000000000000000000000000000000000000008152600401610f0b9061271f565b60405180910390fd5b6000610f1f836106f3565b90508073ffffffffffffffffffffffffffffffffffffffff168473ffffffffffffffffffffffffffffffffffffffff161480610f8e57508373ffffffffffffffffffffffffffffffffffffffff16610f76846104b6565b73ffffffffffffffffffffffffffffffffffffffff16145b80610f9f5750610f9e8185610c9f565b5b91505092915050565b8273ffffffffffffffffffffffffffffffffffffffff16610fc8826106f3565b73ffffffffffffffffffffffffffffffffffffffff161461101e576040517f08c379a00000000000000000000000000000000000000000000000000000000081526004016110159061281f565b60405180910390fd5b600073ffffffffffffffffffffffffffffffffffffffff168273ffffffffffffffffffffffffffffffffffffffff16141561108e576040517f08c379a0000000000000000000000000000000000000000000000000000000008152600401611085906126df565b60405180910390fd5b6110998383836116cd565b6110a4600082610e11565b6001600360008573ffffffffffffffffffffffffffffffffffffffff1673ffffffffffffffffffffffffffffffffffffffff16815260200190815260200160002060008282546110f49190612a15565b925050819055506001600360008473ffffffffffffffffffffffffffffffffffffffff1673ffffffffffffffffffffffffffffffffffffffff168152602001908152602001600020600082825461114b919061298e565b92505081905550816002600083815260200190815260200160002060006101000a81548173ffffffffffffffffffffffffffffffffffffffff021916908373ffffffffffffffffffffffffffffffffffffffff160217905550808273ffffffffffffffffffffffffffffffffffffffff168473ffffffffffffffffffffffffffffffffffffffff167fddf252ad1be2c89b69c2b068fc378daa952ba7f163c4a11628f55a4df523b3ef60405160405180910390a4505050565b8173ffffffffffffffffffffffffffffffffffffffff168373ffffffffffffffffffffffffffffffffffffffff161415611273576040517f08c379a000000000000000000000000000000000000000000000000000000000815260040161126a906126ff565b60405180910390fd5b80600560008573ffffffffffffffffffffffffffffffffffffffff1673ffffffffffffffffffffffffffffffffffffffff16815260200190815260200160002060008473ffffffffffffffffffffffffffffffffffffffff1673ffffffffffffffffffffffffffffffffffffffff16815260200190815260200160002060006101000a81548160ff0219169083151502179055508173ffffffffffffffffffffffffffffffffffffffff168373ffffffffffffffffffffffffffffffffffffffff167f17307eab39ab6107e8899845ad3d59bd9653f200f220920489ca2b5937696c31836040516113649190612642565b60405180910390a3505050565b61137c848484610fa8565b611388848484846116d2565b6113c7576040517f08c379a00000000000000000000000000000000000000000000000000000000081526004016113be9061269f565b60405180910390fd5b50505050565b606060405180602001604052806000815250905090565b60606113ef82610d9d565b61142e576040517f08c379a00000000000000000000000000000000000000000000000000000000081526004016114259061283f565b60405180910390fd5b60006114386113cd565b905060008151116114585760405180602001604052806000815250611483565b8061146284611869565b6040516020016114739291906125b7565b6040516020818303038152906040525b915050919050565b600073ffffffffffffffffffffffffffffffffffffffff168273ffffffffffffffffffffffffffffffffffffffff1614156114fb576040517f08c379a00000000000000000000000000000000000000000000000000000000081526004016114f2906127bf565b60405180910390fd5b61150481610d9d565b15611544576040517f08c379a000000000000000000000000000000000000000000000000000000000815260040161153b906126bf565b60405180910390fd5b611550600083836116cd565b6001600360008473ffffffffffffffffffffffffffffffffffffffff1673ffffffffffffffffffffffffffffffffffffffff16815260200190815260200160002060008282546115a0919061298e565b92505081905550816002600083815260200190815260200160002060006101000a81548173ffffffffffffffffffffffffffffffffffffffff021916908373ffffffffffffffffffffffffffffffffffffffff160217905550808273ffffffffffffffffffffffffffffffffffffffff16600073ffffffffffffffffffffffffffffffffffffffff167fddf252ad1be2c89b69c2b068fc378daa952ba7f163c4a11628f55a4df523b3ef60405160405180910390a45050565b61166282610d9d565b6116a1576040517f08c379a00000000000000000000000000000000000000000000000000000000081526004016116989061279f565b60405180910390fd5b806006600084815260200190815260200160002090805190602001906116c8929190611a29565b505050565b505050565b60006116f38473ffffffffffffffffffffffffffffffffffffffff16611a16565b1561185c578373ffffffffffffffffffffffffffffffffffffffff1663150b7a0261171c610e09565b8786866040518563ffffffff1660e01b815260040161173e94939291906125f6565b602060405180830381600087803b15801561175857600080fd5b505af192505050801561178957506040513d601f19601f820116820180604052508101906117869190611e3e565b60015b61180c573d80600081146117b9576040519150601f19603f3d011682016040523d82523d6000602084013e6117be565b606091505b50600081511415611804576040517f08c379a00000000000000000000000000000000000000000000000000000000081526004016117fb9061269f565b60405180910390fd5b805181602001fd5b63150b7a0260e01b7bffffffffffffffffffffffffffffffffffffffffffffffffffffffff1916817bffffffffffffffffffffffffffffffffffffffffffffffffffffffff191614915050611861565b600190505b949350505050565b606060008214156118b1576040518060400160405280600181526020017f30000000000000000000000000000000000000000000000000000000000000008152509050611a11565b600082905060005b600082146118e35780806118cc90612b31565b915050600a826118dc91906129e4565b91506118b9565b60008167ffffffffffffffff811115611925577f4e487b7100000000000000000000000000000000000000000000000000000000600052604160045260246000fd5b6040519080825280601f01601f1916602001820160405280156119575781602001600182028036833780820191505090505b5090505b60008514611a0a576001826119709190612a15565b9150600a8561197f9190612b7a565b603061198b919061298e565b60f81b8183815181106119c7577f4e487b7100000000000000000000000000000000000000000000000000000000600052603260045260246000fd5b60200101907effffffffffffffffffffffffffffffffffffffffffffffffffffffffffffff1916908160001a905350600a85611a0391906129e4565b945061195b565b8093505050505b919050565b600080823b905060008111915050919050565b828054611a3590612aff565b90600052602060002090601f016020900481019282611a575760008555611a9e565b82601f10611a7057805160ff1916838001178555611a9e565b82800160010185558215611a9e579182015b82811115611a9d578251825591602001919060010190611a82565b5b509050611aab9190611aaf565b5090565b5b80821115611ac8576000816000905550600101611ab0565b5090565b6000611adf611ada846128eb565b6128ba565b905082815260208101848484011115611af757600080fd5b611b02848285612abd565b509392505050565b6000611b1d611b188461291b565b6128ba565b905082815260208101848484011115611b3557600080fd5b611b40848285612abd565b509392505050565b600081359050611b5781612c78565b92915050565b600081359050611b6c81612c8f565b92915050565b600081359050611b8181612ca6565b92915050565b600081519050611b9681612ca6565b92915050565b600082601f830112611bad57600080fd5b8135611bbd848260208601611acc565b91505092915050565b600082601f830112611bd757600080fd5b8135611be7848260208601611b0a565b91505092915050565b600081359050611bff81612cbd565b92915050565b600081519050611c1481612cbd565b92915050565b600060208284031215611c2c57600080fd5b6000611c3a84828501611b48565b91505092915050565b60008060408385031215611c5657600080fd5b6000611c6485828601611b48565b9250506020611c7585828601611b48565b9150509250929050565b600080600060608486031215611c9457600080fd5b6000611ca286828701611b48565b9350506020611cb386828701611b48565b9250506040611cc486828701611bf0565b9150509250925092565b60008060008060808587031215611ce457600080fd5b6000611cf287828801611b48565b9450506020611d0387828801611b48565b9350506040611d1487828801611bf0565b925050606085013567ffffffffffffffff811115611d3157600080fd5b611d3d87828801611b9c565b91505092959194509250565b60008060408385031215611d5c57600080fd5b6000611d6a85828601611b48565b9250506020611d7b85828601611b5d565b9150509250929050565b60008060408385031215611d9857600080fd5b6000611da685828601611b48565b925050602083013567ffffffffffffffff811115611dc357600080fd5b611dcf85828601611bc6565b9150509250929050565b60008060408385031215611dec57600080fd5b6000611dfa85828601611b48565b9250506020611e0b85828601611bf0565b9150509250929050565b600060208284031215611e2757600080fd5b6000611e3584828501611b72565b91505092915050565b600060208284031215611e5057600080fd5b6000611e5e84828501611b87565b91505092915050565b600060208284031215611e7957600080fd5b6000611e8784828501611bf0565b91505092915050565b600060208284031215611ea257600080fd5b6000611eb084828501611c05565b91505092915050565b611ec281612a49565b82525050565b611ed181612a5b565b82525050565b6000611ee28261294b565b611eec8185612961565b9350611efc818560208601612acc565b611f0581612c67565b840191505092915050565b6000611f1b82612956565b611f258185612972565b9350611f35818560208601612acc565b611f3e81612c67565b840191505092915050565b6000611f5482612956565b611f5e8185612983565b9350611f6e818560208601612acc565b80840191505092915050565b6000611f87600e83612972565b91507f42616c616e6365206973204c6f770000000000000000000000000000000000006000830152602082019050919050565b6000611fc7603283612972565b91507f4552433732313a207472616e7366657220746f206e6f6e20455243373231526560008301527f63656976657220696d706c656d656e74657200000000000000000000000000006020830152604082019050919050565b600061202d601c83612972565b91507f4552433732313a20746f6b656e20616c7265616479206d696e746564000000006000830152602082019050919050565b600061206d602483612972565b91507f4552433732313a207472616e7366657220746f20746865207a65726f2061646460008301527f72657373000000000000000000000000000000000000000000000000000000006020830152604082019050919050565b60006120d3601983612972565b91507f4552433732313a20617070726f766520746f2063616c6c6572000000000000006000830152602082019050919050565b6000612113602c83612972565b91507f4552433732313a206f70657261746f7220717565727920666f72206e6f6e657860008301527f697374656e7420746f6b656e00000000000000000000000000000000000000006020830152604082019050919050565b6000612179603883612972565b91507f4552433732313a20617070726f76652063616c6c6572206973206e6f74206f7760008301527f6e6572206e6f7220617070726f76656420666f7220616c6c00000000000000006020830152604082019050919050565b60006121df602a83612972565b91507f4552433732313a2062616c616e636520717565727920666f7220746865207a6560008301527f726f2061646472657373000000000000000000000000000000000000000000006020830152604082019050919050565b6000612245602983612972565b91507f4552433732313a206f776e657220717565727920666f72206e6f6e657869737460008301527f656e7420746f6b656e00000000000000000000000000000000000000000000006020830152604082019050919050565b60006122ab602e83612972565b91507f45524337323155524953746f726167653a2055524920736574206f66206e6f6e60008301527f6578697374656e7420746f6b656e0000000000000000000000000000000000006020830152604082019050919050565b6000612311602083612972565b91507f4552433732313a206d696e7420746f20746865207a65726f20616464726573736000830152602082019050919050565b6000612351603183612972565b91507f45524337323155524953746f726167653a2055524920717565727920666f722060008301527f6e6f6e6578697374656e7420746f6b656e0000000000000000000000000000006020830152604082019050919050565b60006123b7602c83612972565b91507f4552433732313a20617070726f76656420717565727920666f72206e6f6e657860008301527f697374656e7420746f6b656e00000000000000000000000000000000000000006020830152604082019050919050565b600061241d602983612972565b91507f4552433732313a207472616e73666572206f6620746f6b656e2074686174206960008301527f73206e6f74206f776e00000000000000000000000000000000000000000000006020830152604082019050919050565b6000612483602f83612972565b91507f4552433732314d657461646174613a2055524920717565727920666f72206e6f60008301527f6e6578697374656e7420746f6b656e00000000000000000000000000000000006020830152604082019050919050565b60006124e9602183612972565b91507f4552433732313a20617070726f76616c20746f2063757272656e74206f776e6560008301527f72000000000000000000000000000000000000000000000000000000000000006020830152604082019050919050565b600061254f603183612972565b91507f4552433732313a207472616e736665722063616c6c6572206973206e6f74206f60008301527f776e6572206e6f7220617070726f7665640000000000000000000000000000006020830152604082019050919050565b6125b181612ab3565b82525050565b60006125c38285611f49565b91506125cf8284611f49565b91508190509392505050565b60006020820190506125f06000830184611eb9565b92915050565b600060808201905061260b6000830187611eb9565b6126186020830186611eb9565b61262560408301856125a8565b81810360608301526126378184611ed7565b905095945050505050565b60006020820190506126576000830184611ec8565b92915050565b600060208201905081810360008301526126778184611f10565b905092915050565b6000602082019050818103600083015261269881611f7a565b9050919050565b600060208201905081810360008301526126b881611fba565b9050919050565b600060208201905081810360008301526126d881612020565b9050919050565b600060208201905081810360008301526126f881612060565b9050919050565b60006020820190508181036000830152612718816120c6565b9050919050565b6000602082019050818103600083015261273881612106565b9050919050565b600060208201905081810360008301526127588161216c565b9050919050565b60006020820190508181036000830152612778816121d2565b9050919050565b6000602082019050818103600083015261279881612238565b9050919050565b600060208201905081810360008301526127b88161229e565b9050919050565b600060208201905081810360008301526127d881612304565b9050919050565b600060208201905081810360008301526127f881612344565b9050919050565b60006020820190508181036000830152612818816123aa565b9050919050565b6000602082019050818103600083015261283881612410565b9050919050565b6000602082019050818103600083015261285881612476565b9050919050565b60006020820190508181036000830152612878816124dc565b9050919050565b6000602082019050818103600083015261289881612542565b9050919050565b60006020820190506128b460008301846125a8565b92915050565b6000604051905081810181811067ffffffffffffffff821117156128e1576128e0612c38565b5b8060405250919050565b600067ffffffffffffffff82111561290657612905612c38565b5b601f19601f8301169050602081019050919050565b600067ffffffffffffffff82111561293657612935612c38565b5b601f19601f8301169050602081019050919050565b600081519050919050565b600081519050919050565b600082825260208201905092915050565b600082825260208201905092915050565b600081905092915050565b600061299982612ab3565b91506129a483612ab3565b9250827fffffffffffffffffffffffffffffffffffffffffffffffffffffffffffffffff038211156129d9576129d8612bab565b5b828201905092915050565b60006129ef82612ab3565b91506129fa83612ab3565b925082612a0a57612a09612bda565b5b828204905092915050565b6000612a2082612ab3565b9150612a2b83612ab3565b925082821015612a3e57612a3d612bab565b5b828203905092915050565b6000612a5482612a93565b9050919050565b60008115159050919050565b60007fffffffff0000000000000000000000000000000000000000000000000000000082169050919050565b600073ffffffffffffffffffffffffffffffffffffffff82169050919050565b6000819050919050565b82818337600083830152505050565b60005b83811015612aea578082015181840152602081019050612acf565b83811115612af9576000848401525b50505050565b60006002820490506001821680612b1757607f821691505b60208210811415612b2b57612b2a612c09565b5b50919050565b6000612b3c82612ab3565b91507fffffffffffffffffffffffffffffffffffffffffffffffffffffffffffffffff821415612b6f57612b6e612bab565b5b600182019050919050565b6000612b8582612ab3565b9150612b9083612ab3565b925082612ba057612b9f612bda565b5b828206905092915050565b7f4e487b7100000000000000000000000000000000000000000000000000000000600052601160045260246000fd5b7f4e487b7100000000000000000000000000000000000000000000000000000000600052601260045260246000fd5b7f4e487b7100000000000000000000000000000000000000000000000000000000600052602260045260246000fd5b7f4e487b7100000000000000000000000000000000000000000000000000000000600052604160045260246000fd5b6000601f19601f8301169050919050565b612c8181612a49565b8114612c8c57600080fd5b50565b612c9881612a5b565b8114612ca357600080fd5b50565b612caf81612a67565b8114612cba57600080fd5b50565b612cc681612ab3565b8114612cd157600080fd5b5056fea2646970667358221220298ef65a747a5c5fdc057ad3d22fc25ef617e2715a5042130aca0c987433ea5364736f6c63430008000033",
  "immutableReferences": {},
  "source": "// SPDX-License-Identifier: GPL-3.0\npragma solidity ^0.8.0;\n\nimport \"openzeppelin-solidity/contracts/token/ERC721/extensions/ERC721URIStorage.sol\";\nimport \"./dBank.sol\";\n\ncontract MemoryToken is ERC721URIStorage {\n    dBank private bank;\n\n    constructor(dBank _bank) ERC721(\"Blockie\", \"BLC\") {\n        bank = _bank;\n    }\n\n    uint256 c = 0;\n    mapping(address => bool) public minted;\n\n    function mint(address _to, string memory _tokenURI) public returns (bool) {\n        require(bank.checkBalance(_to) >= 1e16, \"Balance is Low\");\n        require(minted[_to] != true);\n        uint256 _tokenId = c++;\n        _mint(_to, _tokenId);\n        _setTokenURI(_tokenId, _tokenURI);\n        minted[_to] = true;\n        return true;\n    }\n}\n",
  "sourcePath": "D:/Ethereum/Block_Game/src/contracts/MemoryToken.sol",
  "compiler": {
    "name": "solc",
    "version": "0.8.0+commit.c7dfd78e.Emscripten.clang"
  },
  "schemaVersion": "3.3.4",
  "updatedAt": "2021-11-27T09:01:02.730Z",
  "networkType": "ethereum",
  "devdoc": {
    "kind": "dev",
    "methods": {
      "approve(address,uint256)": {
        "details": "See {IERC721-approve}."
      },
      "balanceOf(address)": {
        "details": "See {IERC721-balanceOf}."
      },
      "getApproved(uint256)": {
        "details": "See {IERC721-getApproved}."
      },
      "isApprovedForAll(address,address)": {
        "details": "See {IERC721-isApprovedForAll}."
      },
      "name()": {
        "details": "See {IERC721Metadata-name}."
      },
      "ownerOf(uint256)": {
        "details": "See {IERC721-ownerOf}."
      },
      "safeTransferFrom(address,address,uint256)": {
        "details": "See {IERC721-safeTransferFrom}."
      },
      "safeTransferFrom(address,address,uint256,bytes)": {
        "details": "See {IERC721-safeTransferFrom}."
      },
      "setApprovalForAll(address,bool)": {
        "details": "See {IERC721-setApprovalForAll}."
      },
      "supportsInterface(bytes4)": {
        "details": "See {IERC165-supportsInterface}."
      },
      "symbol()": {
        "details": "See {IERC721Metadata-symbol}."
      },
      "tokenURI(uint256)": {
        "details": "See {IERC721Metadata-tokenURI}."
      },
      "transferFrom(address,address,uint256)": {
        "details": "See {IERC721-transferFrom}."
      }
    },
    "version": 1
  },
  "userdoc": {
    "kind": "user",
    "methods": {},
    "version": 1
  }
}