{
  "contractName": "NftToken",
  "abi": [
    {
      "inputs": [
        {
          "internalType": "contract Pool",
          "name": "_bank",
          "type": "address"
        }
      ],
      "stateMutability": "nonpayable",
      "type": "constructor"
    },
    {
      "anonymous": false,
      "inputs": [
        {
          "indexed": true,
          "internalType": "address",
          "name": "owner",
          "type": "address"
        },
        {
          "indexed": true,
          "internalType": "address",
          "name": "approved",
          "type": "address"
        },
        {
          "indexed": true,
          "internalType": "uint256",
          "name": "tokenId",
          "type": "uint256"
        }
      ],
      "name": "Approval",
      "type": "event"
    },
    {
      "anonymous": false,
      "inputs": [
        {
          "indexed": true,
          "internalType": "address",
          "name": "owner",
          "type": "address"
        },
        {
          "indexed": true,
          "internalType": "address",
          "name": "operator",
          "type": "address"
        },
        {
          "indexed": false,
          "internalType": "bool",
          "name": "approved",
          "type": "bool"
        }
      ],
      "name": "ApprovalForAll",
      "type": "event"
    },
    {
      "anonymous": false,
      "inputs": [
        {
          "indexed": true,
          "internalType": "address",
          "name": "from",
          "type": "address"
        },
        {
          "indexed": true,
          "internalType": "address",
          "name": "to",
          "type": "address"
        },
        {
          "indexed": true,
          "internalType": "uint256",
          "name": "tokenId",
          "type": "uint256"
        }
      ],
      "name": "Transfer",
      "type": "event"
    },
    {
      "inputs": [
        {
          "internalType": "address",
          "name": "to",
          "type": "address"
        },
        {
          "internalType": "uint256",
          "name": "tokenId",
          "type": "uint256"
        }
      ],
      "name": "approve",
      "outputs": [],
      "stateMutability": "nonpayable",
      "type": "function"
    },
    {
      "inputs": [
        {
          "internalType": "address",
          "name": "owner",
          "type": "address"
        }
      ],
      "name": "balanceOf",
      "outputs": [
        {
          "internalType": "uint256",
          "name": "",
          "type": "uint256"
        }
      ],
      "stateMutability": "view",
      "type": "function",
      "constant": true
    },
    {
      "inputs": [
        {
          "internalType": "uint256",
          "name": "tokenId",
          "type": "uint256"
        }
      ],
      "name": "getApproved",
      "outputs": [
        {
          "internalType": "address",
          "name": "",
          "type": "address"
        }
      ],
      "stateMutability": "view",
      "type": "function",
      "constant": true
    },
    {
      "inputs": [
        {
          "internalType": "address",
          "name": "owner",
          "type": "address"
        },
        {
          "internalType": "address",
          "name": "operator",
          "type": "address"
        }
      ],
      "name": "isApprovedForAll",
      "outputs": [
        {
          "internalType": "bool",
          "name": "",
          "type": "bool"
        }
      ],
      "stateMutability": "view",
      "type": "function",
      "constant": true
    },
    {
      "inputs": [
        {
          "internalType": "address",
          "name": "",
          "type": "address"
        }
      ],
      "name": "isPlayed",
      "outputs": [
        {
          "internalType": "bool",
          "name": "",
          "type": "bool"
        }
      ],
      "stateMutability": "view",
      "type": "function",
      "constant": true
    },
    {
      "inputs": [
        {
          "internalType": "address",
          "name": "",
          "type": "address"
        }
      ],
      "name": "minted",
      "outputs": [
        {
          "internalType": "bool",
          "name": "",
          "type": "bool"
        }
      ],
      "stateMutability": "view",
      "type": "function",
      "constant": true
    },
    {
      "inputs": [],
      "name": "name",
      "outputs": [
        {
          "internalType": "string",
          "name": "",
          "type": "string"
        }
      ],
      "stateMutability": "view",
      "type": "function",
      "constant": true
    },
    {
      "inputs": [
        {
          "internalType": "uint256",
          "name": "tokenId",
          "type": "uint256"
        }
      ],
      "name": "ownerOf",
      "outputs": [
        {
          "internalType": "address",
          "name": "",
          "type": "address"
        }
      ],
      "stateMutability": "view",
      "type": "function",
      "constant": true
    },
    {
      "inputs": [
        {
          "internalType": "address",
          "name": "from",
          "type": "address"
        },
        {
          "internalType": "address",
          "name": "to",
          "type": "address"
        },
        {
          "internalType": "uint256",
          "name": "tokenId",
          "type": "uint256"
        }
      ],
      "name": "safeTransferFrom",
      "outputs": [],
      "stateMutability": "nonpayable",
      "type": "function"
    },
    {
      "inputs": [
        {
          "internalType": "address",
          "name": "from",
          "type": "address"
        },
        {
          "internalType": "address",
          "name": "to",
          "type": "address"
        },
        {
          "internalType": "uint256",
          "name": "tokenId",
          "type": "uint256"
        },
        {
          "internalType": "bytes",
          "name": "_data",
          "type": "bytes"
        }
      ],
      "name": "safeTransferFrom",
      "outputs": [],
      "stateMutability": "nonpayable",
      "type": "function"
    },
    {
      "inputs": [
        {
          "internalType": "address",
          "name": "operator",
          "type": "address"
        },
        {
          "internalType": "bool",
          "name": "approved",
          "type": "bool"
        }
      ],
      "name": "setApprovalForAll",
      "outputs": [],
      "stateMutability": "nonpayable",
      "type": "function"
    },
    {
      "inputs": [
        {
          "internalType": "bytes4",
          "name": "interfaceId",
          "type": "bytes4"
        }
      ],
      "name": "supportsInterface",
      "outputs": [
        {
          "internalType": "bool",
          "name": "",
          "type": "bool"
        }
      ],
      "stateMutability": "view",
      "type": "function",
      "constant": true
    },
    {
      "inputs": [],
      "name": "symbol",
      "outputs": [
        {
          "internalType": "string",
          "name": "",
          "type": "string"
        }
      ],
      "stateMutability": "view",
      "type": "function",
      "constant": true
    },
    {
      "inputs": [
        {
          "internalType": "uint256",
          "name": "index",
          "type": "uint256"
        }
      ],
      "name": "tokenByIndex",
      "outputs": [
        {
          "internalType": "uint256",
          "name": "",
          "type": "uint256"
        }
      ],
      "stateMutability": "view",
      "type": "function",
      "constant": true
    },
    {
      "inputs": [
        {
          "internalType": "address",
          "name": "owner",
          "type": "address"
        },
        {
          "internalType": "uint256",
          "name": "index",
          "type": "uint256"
        }
      ],
      "name": "tokenOfOwnerByIndex",
      "outputs": [
        {
          "internalType": "uint256",
          "name": "",
          "type": "uint256"
        }
      ],
      "stateMutability": "view",
      "type": "function",
      "constant": true
    },
    {
      "inputs": [],
      "name": "totalSupply",
      "outputs": [
        {
          "internalType": "uint256",
          "name": "",
          "type": "uint256"
        }
      ],
      "stateMutability": "view",
      "type": "function",
      "constant": true
    },
    {
      "inputs": [
        {
          "internalType": "address",
          "name": "from",
          "type": "address"
        },
        {
          "internalType": "address",
          "name": "to",
          "type": "address"
        },
        {
          "internalType": "uint256",
          "name": "tokenId",
          "type": "uint256"
        }
      ],
      "name": "transferFrom",
      "outputs": [],
      "stateMutability": "nonpayable",
      "type": "function"
    },
    {
      "inputs": [
        {
          "internalType": "uint256",
          "name": "_tokenId",
          "type": "uint256"
        }
      ],
      "name": "tokenURI",
      "outputs": [
        {
          "internalType": "string",
          "name": "_tokenURI",
          "type": "string"
        }
      ],
      "stateMutability": "view",
      "type": "function",
      "constant": true
    },
    {
      "inputs": [
        {
          "internalType": "address",
          "name": "_to",
          "type": "address"
        },
        {
          "internalType": "string",
          "name": "_tokenURI",
          "type": "string"
        }
      ],
      "name": "mint",
      "outputs": [
        {
          "internalType": "bool",
          "name": "",
          "type": "bool"
        }
      ],
      "stateMutability": "nonpayable",
      "type": "function"
    }
  ],
  "bytecode": "0x60806040526000600b553480156200001657600080fd5b50604051620033383803806200333883398181016040528101906200003c9190620001eb565b6040518060400160405280600781526020017f426c6f636b6965000000000000000000000000000000000000000000000000008152506040518060400160405280600381526020017f424c4300000000000000000000000000000000000000000000000000000000008152508160009080519060200190620000c092919062000124565b508060019080519060200190620000d992919062000124565b50505080600a60006101000a81548173ffffffffffffffffffffffffffffffffffffffff021916908373ffffffffffffffffffffffffffffffffffffffff16021790555050620002de565b82805462000132906200025f565b90600052602060002090601f016020900481019282620001565760008555620001a2565b82601f106200017157805160ff1916838001178555620001a2565b82800160010185558215620001a2579182015b82811115620001a157825182559160200191906001019062000184565b5b509050620001b19190620001b5565b5090565b5b80821115620001d0576000816000905550600101620001b6565b5090565b600081519050620001e581620002c4565b92915050565b600060208284031215620001fe57600080fd5b60006200020e84828501620001d4565b91505092915050565b600062000224826200023f565b9050919050565b6000620002388262000217565b9050919050565b600073ffffffffffffffffffffffffffffffffffffffff82169050919050565b600060028204905060018216806200027857607f821691505b602082108114156200028f576200028e62000295565b5b50919050565b7f4e487b7100000000000000000000000000000000000000000000000000000000600052602260045260246000fd5b620002cf816200022b565b8114620002db57600080fd5b50565b61304a80620002ee6000396000f3fe608060405234801561001057600080fd5b50600436106101215760003560e01c80634b50c6a6116100ad578063a22cb46511610071578063a22cb46514610354578063b88d4fde14610370578063c87b56dd1461038c578063d0def521146103bc578063e985e9c5146103ec57610121565b80634b50c6a6146102765780634f6ccce7146102a65780636352211e146102d657806370a082311461030657806395d89b411461033657610121565b806318160ddd116100f457806318160ddd146101c05780631e7269c5146101de57806323b872dd1461020e5780632f745c591461022a57806342842e0e1461025a57610121565b806301ffc9a71461012657806306fdde0314610156578063081812fc14610174578063095ea7b3146101a4575b600080fd5b610140600480360381019061013b9190612246565b61041c565b60405161014d9190612a1e565b60405180910390f35b61015e610496565b60405161016b9190612a39565b60405180910390f35b61018e60048036038101906101899190612298565b610528565b60405161019b91906129b7565b60405180910390f35b6101be60048036038101906101b9919061220a565b6105ad565b005b6101c86106c5565b6040516101d59190612c7b565b60405180910390f35b6101f860048036038101906101f3919061204b565b6106d2565b6040516102059190612a1e565b60405180910390f35b610228600480360381019061022391906120b0565b6106f2565b005b610244600480360381019061023f919061220a565b610752565b6040516102519190612c7b565b60405180910390f35b610274600480360381019061026f91906120b0565b6107f7565b005b610290600480360381019061028b919061204b565b610817565b60405161029d9190612a1e565b60405180910390f35b6102c060048036038101906102bb9190612298565b610837565b6040516102cd9190612c7b565b60405180910390f35b6102f060048036038101906102eb9190612298565b6108ce565b6040516102fd91906129b7565b60405180910390f35b610320600480360381019061031b919061204b565b610980565b60405161032d9190612c7b565b60405180910390f35b61033e610a38565b60405161034b9190612a39565b60405180910390f35b61036e6004803603810190610369919061217a565b610aca565b005b61038a600480360381019061038591906120ff565b610ae0565b005b6103a660048036038101906103a19190612298565b610b42565b6040516103b39190612a39565b60405180910390f35b6103d660048036038101906103d191906121b6565b610be7565b6040516103e39190612a1e565b60405180910390f35b61040660048036038101906104019190612074565b610dcd565b6040516104139190612a1e565b60405180910390f35b60007f780e9d63000000000000000000000000000000000000000000000000000000007bffffffffffffffffffffffffffffffffffffffffffffffffffffffff1916827bffffffffffffffffffffffffffffffffffffffffffffffffffffffff1916148061048f575061048e82610e61565b5b9050919050565b6060600080546104a590612e9f565b80601f01602080910402602001604051908101604052809291908181526020018280546104d190612e9f565b801561051e5780601f106104f35761010080835404028352916020019161051e565b820191906000526020600020905b81548152906001019060200180831161050157829003601f168201915b5050505050905090565b600061053382610f43565b610572576040517f08c379a000000000000000000000000000000000000000000000000000000000815260040161056990612bbb565b60405180910390fd5b6004600083815260200190815260200160002060009054906101000a900473ffffffffffffffffffffffffffffffffffffffff169050919050565b60006105b8826108ce565b90508073ffffffffffffffffffffffffffffffffffffffff168373ffffffffffffffffffffffffffffffffffffffff161415610629576040517f08c379a000000000000000000000000000000000000000000000000000000000815260040161062090612c1b565b60405180910390fd5b8073ffffffffffffffffffffffffffffffffffffffff16610648610faf565b73ffffffffffffffffffffffffffffffffffffffff161480610677575061067681610671610faf565b610dcd565b5b6106b6576040517f08c379a00000000000000000000000000000000000000000000000000000000081526004016106ad90612b3b565b60405180910390fd5b6106c08383610fb7565b505050565b6000600880549050905090565b600c6020528060005260406000206000915054906101000a900460ff1681565b6107036106fd610faf565b82611070565b610742576040517f08c379a000000000000000000000000000000000000000000000000000000000815260040161073990612c3b565b60405180910390fd5b61074d83838361114e565b505050565b600061075d83610980565b821061079e576040517f08c379a000000000000000000000000000000000000000000000000000000000815260040161079590612a7b565b60405180910390fd5b600660008473ffffffffffffffffffffffffffffffffffffffff1673ffffffffffffffffffffffffffffffffffffffff168152602001908152602001600020600083815260200190815260200160002054905092915050565b61081283838360405180602001604052806000815250610ae0565b505050565b600d6020528060005260406000206000915054906101000a900460ff1681565b60006108416106c5565b8210610882576040517f08c379a000000000000000000000000000000000000000000000000000000000815260040161087990612c5b565b60405180910390fd5b600882815481106108bc577f4e487b7100000000000000000000000000000000000000000000000000000000600052603260045260246000fd5b90600052602060002001549050919050565b6000806002600084815260200190815260200160002060009054906101000a900473ffffffffffffffffffffffffffffffffffffffff169050600073ffffffffffffffffffffffffffffffffffffffff168173ffffffffffffffffffffffffffffffffffffffff161415610977576040517f08c379a000000000000000000000000000000000000000000000000000000000815260040161096e90612b7b565b60405180910390fd5b80915050919050565b60008073ffffffffffffffffffffffffffffffffffffffff168273ffffffffffffffffffffffffffffffffffffffff1614156109f1576040517f08c379a00000000000000000000000000000000000000000000000000000000081526004016109e890612b5b565b60405180910390fd5b600360008373ffffffffffffffffffffffffffffffffffffffff1673ffffffffffffffffffffffffffffffffffffffff168152602001908152602001600020549050919050565b606060018054610a4790612e9f565b80601f0160208091040260200160405190810160405280929190818152602001828054610a7390612e9f565b8015610ac05780601f10610a9557610100808354040283529160200191610ac0565b820191906000526020600020905b815481529060010190602001808311610aa357829003601f168201915b5050505050905090565b610adc610ad5610faf565b83836113aa565b5050565b610af1610aeb610faf565b83611070565b610b30576040517f08c379a0000000000000000000000000000000000000000000000000000000008152600401610b2790612c3b565b60405180910390fd5b610b3c84848484611517565b50505050565b6060600e60008381526020019081526020016000208054610b6290612e9f565b80601f0160208091040260200160405190810160405280929190818152602001828054610b8e90612e9f565b8015610bdb5780601f10610bb057610100808354040283529160200191610bdb565b820191906000526020600020905b815481529060010190602001808311610bbe57829003601f168201915b50505050509050919050565b6000662386f26fc10000600a60009054906101000a900473ffffffffffffffffffffffffffffffffffffffff1673ffffffffffffffffffffffffffffffffffffffff16635f515226856040518263ffffffff1660e01b8152600401610c4c91906129b7565b60206040518083038186803b158015610c6457600080fd5b505afa158015610c78573d6000803e3d6000fd5b505050506040513d601f19601f82011682018060405250810190610c9c91906122c1565b1015610cdd576040517f08c379a0000000000000000000000000000000000000000000000000000000008152600401610cd490612a5b565b60405180910390fd5b60011515600c60008573ffffffffffffffffffffffffffffffffffffffff1673ffffffffffffffffffffffffffffffffffffffff16815260200190815260200160002060009054906101000a900460ff1615151415610d3b57600080fd5b6000600b6000815480929190610d5090612ed1565b919050559050610d608482611573565b610d6a8184611741565b6001600c60008673ffffffffffffffffffffffffffffffffffffffff1673ffffffffffffffffffffffffffffffffffffffff16815260200190815260200160002060006101000a81548160ff021916908315150217905550600191505092915050565b6000600560008473ffffffffffffffffffffffffffffffffffffffff1673ffffffffffffffffffffffffffffffffffffffff16815260200190815260200160002060008373ffffffffffffffffffffffffffffffffffffffff1673ffffffffffffffffffffffffffffffffffffffff16815260200190815260200160002060009054906101000a900460ff16905092915050565b60007f80ac58cd000000000000000000000000000000000000000000000000000000007bffffffffffffffffffffffffffffffffffffffffffffffffffffffff1916827bffffffffffffffffffffffffffffffffffffffffffffffffffffffff19161480610f2c57507f5b5e139f000000000000000000000000000000000000000000000000000000007bffffffffffffffffffffffffffffffffffffffffffffffffffffffff1916827bffffffffffffffffffffffffffffffffffffffffffffffffffffffff1916145b80610f3c5750610f3b826117b5565b5b9050919050565b60008073ffffffffffffffffffffffffffffffffffffffff166002600084815260200190815260200160002060009054906101000a900473ffffffffffffffffffffffffffffffffffffffff1673ffffffffffffffffffffffffffffffffffffffff1614159050919050565b600033905090565b816004600083815260200190815260200160002060006101000a81548173ffffffffffffffffffffffffffffffffffffffff021916908373ffffffffffffffffffffffffffffffffffffffff160217905550808273ffffffffffffffffffffffffffffffffffffffff1661102a836108ce565b73ffffffffffffffffffffffffffffffffffffffff167f8c5be1e5ebec7d5bd14f71427d1e84f3dd0314c0f7b2291e5b200ac8c7c3b92560405160405180910390a45050565b600061107b82610f43565b6110ba576040517f08c379a00000000000000000000000000000000000000000000000000000000081526004016110b190612b1b565b60405180910390fd5b60006110c5836108ce565b90508073ffffffffffffffffffffffffffffffffffffffff168473ffffffffffffffffffffffffffffffffffffffff16148061113457508373ffffffffffffffffffffffffffffffffffffffff1661111c84610528565b73ffffffffffffffffffffffffffffffffffffffff16145b8061114557506111448185610dcd565b5b91505092915050565b8273ffffffffffffffffffffffffffffffffffffffff1661116e826108ce565b73ffffffffffffffffffffffffffffffffffffffff16146111c4576040517f08c379a00000000000000000000000000000000000000000000000000000000081526004016111bb90612bfb565b60405180910390fd5b600073ffffffffffffffffffffffffffffffffffffffff168273ffffffffffffffffffffffffffffffffffffffff161415611234576040517f08c379a000000000000000000000000000000000000000000000000000000000815260040161122b90612adb565b60405180910390fd5b61123f83838361181f565b61124a600082610fb7565b6001600360008573ffffffffffffffffffffffffffffffffffffffff1673ffffffffffffffffffffffffffffffffffffffff168152602001908152602001600020600082825461129a9190612db5565b925050819055506001600360008473ffffffffffffffffffffffffffffffffffffffff1673ffffffffffffffffffffffffffffffffffffffff16815260200190815260200160002060008282546112f19190612d5f565b92505081905550816002600083815260200190815260200160002060006101000a81548173ffffffffffffffffffffffffffffffffffffffff021916908373ffffffffffffffffffffffffffffffffffffffff160217905550808273ffffffffffffffffffffffffffffffffffffffff168473ffffffffffffffffffffffffffffffffffffffff167fddf252ad1be2c89b69c2b068fc378daa952ba7f163c4a11628f55a4df523b3ef60405160405180910390a4505050565b8173ffffffffffffffffffffffffffffffffffffffff168373ffffffffffffffffffffffffffffffffffffffff161415611419576040517f08c379a000000000000000000000000000000000000000000000000000000000815260040161141090612afb565b60405180910390fd5b80600560008573ffffffffffffffffffffffffffffffffffffffff1673ffffffffffffffffffffffffffffffffffffffff16815260200190815260200160002060008473ffffffffffffffffffffffffffffffffffffffff1673ffffffffffffffffffffffffffffffffffffffff16815260200190815260200160002060006101000a81548160ff0219169083151502179055508173ffffffffffffffffffffffffffffffffffffffff168373ffffffffffffffffffffffffffffffffffffffff167f17307eab39ab6107e8899845ad3d59bd9653f200f220920489ca2b5937696c318360405161150a9190612a1e565b60405180910390a3505050565b61152284848461114e565b61152e84848484611933565b61156d576040517f08c379a000000000000000000000000000000000000000000000000000000000815260040161156490612a9b565b60405180910390fd5b50505050565b600073ffffffffffffffffffffffffffffffffffffffff168273ffffffffffffffffffffffffffffffffffffffff1614156115e3576040517f08c379a00000000000000000000000000000000000000000000000000000000081526004016115da90612b9b565b60405180910390fd5b6115ec81610f43565b1561162c576040517f08c379a000000000000000000000000000000000000000000000000000000000815260040161162390612abb565b60405180910390fd5b6116386000838361181f565b6001600360008473ffffffffffffffffffffffffffffffffffffffff1673ffffffffffffffffffffffffffffffffffffffff16815260200190815260200160002060008282546116889190612d5f565b92505081905550816002600083815260200190815260200160002060006101000a81548173ffffffffffffffffffffffffffffffffffffffff021916908373ffffffffffffffffffffffffffffffffffffffff160217905550808273ffffffffffffffffffffffffffffffffffffffff16600073ffffffffffffffffffffffffffffffffffffffff167fddf252ad1be2c89b69c2b068fc378daa952ba7f163c4a11628f55a4df523b3ef60405160405180910390a45050565b61174a82610f43565b611789576040517f08c379a000000000000000000000000000000000000000000000000000000000815260040161178090612bdb565b60405180910390fd5b80600e600084815260200190815260200160002090805190602001906117b0929190611e5a565b505050565b60007f01ffc9a7000000000000000000000000000000000000000000000000000000007bffffffffffffffffffffffffffffffffffffffffffffffffffffffff1916827bffffffffffffffffffffffffffffffffffffffffffffffffffffffff1916149050919050565b61182a838383611aca565b600073ffffffffffffffffffffffffffffffffffffffff168373ffffffffffffffffffffffffffffffffffffffff16141561186d5761186881611acf565b6118ac565b8173ffffffffffffffffffffffffffffffffffffffff168373ffffffffffffffffffffffffffffffffffffffff16146118ab576118aa8382611b18565b5b5b600073ffffffffffffffffffffffffffffffffffffffff168273ffffffffffffffffffffffffffffffffffffffff1614156118ef576118ea81611c85565b61192e565b8273ffffffffffffffffffffffffffffffffffffffff168273ffffffffffffffffffffffffffffffffffffffff161461192d5761192c8282611dc8565b5b5b505050565b60006119548473ffffffffffffffffffffffffffffffffffffffff16611e47565b15611abd578373ffffffffffffffffffffffffffffffffffffffff1663150b7a0261197d610faf565b8786866040518563ffffffff1660e01b815260040161199f94939291906129d2565b602060405180830381600087803b1580156119b957600080fd5b505af19250505080156119ea57506040513d601f19601f820116820180604052508101906119e7919061226f565b60015b611a6d573d8060008114611a1a576040519150601f19603f3d011682016040523d82523d6000602084013e611a1f565b606091505b50600081511415611a65576040517f08c379a0000000000000000000000000000000000000000000000000000000008152600401611a5c90612a9b565b60405180910390fd5b805181602001fd5b63150b7a0260e01b7bffffffffffffffffffffffffffffffffffffffffffffffffffffffff1916817bffffffffffffffffffffffffffffffffffffffffffffffffffffffff191614915050611ac2565b600190505b949350505050565b505050565b6008805490506009600083815260200190815260200160002081905550600881908060018154018082558091505060019003906000526020600020016000909190919091505550565b60006001611b2584610980565b611b2f9190612db5565b9050600060076000848152602001908152602001600020549050818114611c14576000600660008673ffffffffffffffffffffffffffffffffffffffff1673ffffffffffffffffffffffffffffffffffffffff168152602001908152602001600020600084815260200190815260200160002054905080600660008773ffffffffffffffffffffffffffffffffffffffff1673ffffffffffffffffffffffffffffffffffffffff168152602001908152602001600020600084815260200190815260200160002081905550816007600083815260200190815260200160002081905550505b6007600084815260200190815260200160002060009055600660008573ffffffffffffffffffffffffffffffffffffffff1673ffffffffffffffffffffffffffffffffffffffff16815260200190815260200160002060008381526020019081526020016000206000905550505050565b60006001600880549050611c999190612db5565b9050600060096000848152602001908152602001600020549050600060088381548110611cef577f4e487b7100000000000000000000000000000000000000000000000000000000600052603260045260246000fd5b906000526020600020015490508060088381548110611d37577f4e487b7100000000000000000000000000000000000000000000000000000000600052603260045260246000fd5b906000526020600020018190555081600960008381526020019081526020016000208190555060096000858152602001908152602001600020600090556008805480611dac577f4e487b7100000000000000000000000000000000000000000000000000000000600052603160045260246000fd5b6001900381819060005260206000200160009055905550505050565b6000611dd383610980565b905081600660008573ffffffffffffffffffffffffffffffffffffffff1673ffffffffffffffffffffffffffffffffffffffff168152602001908152602001600020600083815260200190815260200160002081905550806007600084815260200190815260200160002081905550505050565b600080823b905060008111915050919050565b828054611e6690612e9f565b90600052602060002090601f016020900481019282611e885760008555611ecf565b82601f10611ea157805160ff1916838001178555611ecf565b82800160010185558215611ecf579182015b82811115611ece578251825591602001919060010190611eb3565b5b509050611edc9190611ee0565b5090565b5b80821115611ef9576000816000905550600101611ee1565b5090565b6000611f10611f0b84612cc7565b612c96565b905082815260208101848484011115611f2857600080fd5b611f33848285612e5d565b509392505050565b6000611f4e611f4984612cf7565b612c96565b905082815260208101848484011115611f6657600080fd5b611f71848285612e5d565b509392505050565b600081359050611f8881612fb8565b92915050565b600081359050611f9d81612fcf565b92915050565b600081359050611fb281612fe6565b92915050565b600081519050611fc781612fe6565b92915050565b600082601f830112611fde57600080fd5b8135611fee848260208601611efd565b91505092915050565b600082601f83011261200857600080fd5b8135612018848260208601611f3b565b91505092915050565b60008135905061203081612ffd565b92915050565b60008151905061204581612ffd565b92915050565b60006020828403121561205d57600080fd5b600061206b84828501611f79565b91505092915050565b6000806040838503121561208757600080fd5b600061209585828601611f79565b92505060206120a685828601611f79565b9150509250929050565b6000806000606084860312156120c557600080fd5b60006120d386828701611f79565b93505060206120e486828701611f79565b92505060406120f586828701612021565b9150509250925092565b6000806000806080858703121561211557600080fd5b600061212387828801611f79565b945050602061213487828801611f79565b935050604061214587828801612021565b925050606085013567ffffffffffffffff81111561216257600080fd5b61216e87828801611fcd565b91505092959194509250565b6000806040838503121561218d57600080fd5b600061219b85828601611f79565b92505060206121ac85828601611f8e565b9150509250929050565b600080604083850312156121c957600080fd5b60006121d785828601611f79565b925050602083013567ffffffffffffffff8111156121f457600080fd5b61220085828601611ff7565b9150509250929050565b6000806040838503121561221d57600080fd5b600061222b85828601611f79565b925050602061223c85828601612021565b9150509250929050565b60006020828403121561225857600080fd5b600061226684828501611fa3565b91505092915050565b60006020828403121561228157600080fd5b600061228f84828501611fb8565b91505092915050565b6000602082840312156122aa57600080fd5b60006122b884828501612021565b91505092915050565b6000602082840312156122d357600080fd5b60006122e184828501612036565b91505092915050565b6122f381612de9565b82525050565b61230281612dfb565b82525050565b600061231382612d27565b61231d8185612d3d565b935061232d818560208601612e6c565b61233681612fa7565b840191505092915050565b600061234c82612d32565b6123568185612d4e565b9350612366818560208601612e6c565b61236f81612fa7565b840191505092915050565b6000612387600e83612d4e565b91507f42616c616e6365206973204c6f770000000000000000000000000000000000006000830152602082019050919050565b60006123c7602b83612d4e565b91507f455243373231456e756d657261626c653a206f776e657220696e646578206f7560008301527f74206f6620626f756e64730000000000000000000000000000000000000000006020830152604082019050919050565b600061242d603283612d4e565b91507f4552433732313a207472616e7366657220746f206e6f6e20455243373231526560008301527f63656976657220696d706c656d656e74657200000000000000000000000000006020830152604082019050919050565b6000612493601c83612d4e565b91507f4552433732313a20746f6b656e20616c7265616479206d696e746564000000006000830152602082019050919050565b60006124d3602483612d4e565b91507f4552433732313a207472616e7366657220746f20746865207a65726f2061646460008301527f72657373000000000000000000000000000000000000000000000000000000006020830152604082019050919050565b6000612539601983612d4e565b91507f4552433732313a20617070726f766520746f2063616c6c6572000000000000006000830152602082019050919050565b6000612579602c83612d4e565b91507f4552433732313a206f70657261746f7220717565727920666f72206e6f6e657860008301527f697374656e7420746f6b656e00000000000000000000000000000000000000006020830152604082019050919050565b60006125df603883612d4e565b91507f4552433732313a20617070726f76652063616c6c6572206973206e6f74206f7760008301527f6e6572206e6f7220617070726f76656420666f7220616c6c00000000000000006020830152604082019050919050565b6000612645602a83612d4e565b91507f4552433732313a2062616c616e636520717565727920666f7220746865207a6560008301527f726f2061646472657373000000000000000000000000000000000000000000006020830152604082019050919050565b60006126ab602983612d4e565b91507f4552433732313a206f776e657220717565727920666f72206e6f6e657869737460008301527f656e7420746f6b656e00000000000000000000000000000000000000000000006020830152604082019050919050565b6000612711602083612d4e565b91507f4552433732313a206d696e7420746f20746865207a65726f20616464726573736000830152602082019050919050565b6000612751602c83612d4e565b91507f4552433732313a20617070726f76656420717565727920666f72206e6f6e657860008301527f697374656e7420746f6b656e00000000000000000000000000000000000000006020830152604082019050919050565b60006127b7602c83612d4e565b91507f4552433732314d657461646174613a2055524920736574206f66206e6f6e657860008301527f697374656e7420746f6b656e00000000000000000000000000000000000000006020830152604082019050919050565b600061281d602983612d4e565b91507f4552433732313a207472616e73666572206f6620746f6b656e2074686174206960008301527f73206e6f74206f776e00000000000000000000000000000000000000000000006020830152604082019050919050565b6000612883602183612d4e565b91507f4552433732313a20617070726f76616c20746f2063757272656e74206f776e6560008301527f72000000000000000000000000000000000000000000000000000000000000006020830152604082019050919050565b60006128e9603183612d4e565b91507f4552433732313a207472616e736665722063616c6c6572206973206e6f74206f60008301527f776e6572206e6f7220617070726f7665640000000000000000000000000000006020830152604082019050919050565b600061294f602c83612d4e565b91507f455243373231456e756d657261626c653a20676c6f62616c20696e646578206f60008301527f7574206f6620626f756e647300000000000000000000000000000000000000006020830152604082019050919050565b6129b181612e53565b82525050565b60006020820190506129cc60008301846122ea565b92915050565b60006080820190506129e760008301876122ea565b6129f460208301866122ea565b612a0160408301856129a8565b8181036060830152612a138184612308565b905095945050505050565b6000602082019050612a3360008301846122f9565b92915050565b60006020820190508181036000830152612a538184612341565b905092915050565b60006020820190508181036000830152612a748161237a565b9050919050565b60006020820190508181036000830152612a94816123ba565b9050919050565b60006020820190508181036000830152612ab481612420565b9050919050565b60006020820190508181036000830152612ad481612486565b9050919050565b60006020820190508181036000830152612af4816124c6565b9050919050565b60006020820190508181036000830152612b148161252c565b9050919050565b60006020820190508181036000830152612b348161256c565b9050919050565b60006020820190508181036000830152612b54816125d2565b9050919050565b60006020820190508181036000830152612b7481612638565b9050919050565b60006020820190508181036000830152612b948161269e565b9050919050565b60006020820190508181036000830152612bb481612704565b9050919050565b60006020820190508181036000830152612bd481612744565b9050919050565b60006020820190508181036000830152612bf4816127aa565b9050919050565b60006020820190508181036000830152612c1481612810565b9050919050565b60006020820190508181036000830152612c3481612876565b9050919050565b60006020820190508181036000830152612c54816128dc565b9050919050565b60006020820190508181036000830152612c7481612942565b9050919050565b6000602082019050612c9060008301846129a8565b92915050565b6000604051905081810181811067ffffffffffffffff82111715612cbd57612cbc612f78565b5b8060405250919050565b600067ffffffffffffffff821115612ce257612ce1612f78565b5b601f19601f8301169050602081019050919050565b600067ffffffffffffffff821115612d1257612d11612f78565b5b601f19601f8301169050602081019050919050565b600081519050919050565b600081519050919050565b600082825260208201905092915050565b600082825260208201905092915050565b6000612d6a82612e53565b9150612d7583612e53565b9250827fffffffffffffffffffffffffffffffffffffffffffffffffffffffffffffffff03821115612daa57612da9612f1a565b5b828201905092915050565b6000612dc082612e53565b9150612dcb83612e53565b925082821015612dde57612ddd612f1a565b5b828203905092915050565b6000612df482612e33565b9050919050565b60008115159050919050565b60007fffffffff0000000000000000000000000000000000000000000000000000000082169050919050565b600073ffffffffffffffffffffffffffffffffffffffff82169050919050565b6000819050919050565b82818337600083830152505050565b60005b83811015612e8a578082015181840152602081019050612e6f565b83811115612e99576000848401525b50505050565b60006002820490506001821680612eb757607f821691505b60208210811415612ecb57612eca612f49565b5b50919050565b6000612edc82612e53565b91507fffffffffffffffffffffffffffffffffffffffffffffffffffffffffffffffff821415612f0f57612f0e612f1a565b5b600182019050919050565b7f4e487b7100000000000000000000000000000000000000000000000000000000600052601160045260246000fd5b7f4e487b7100000000000000000000000000000000000000000000000000000000600052602260045260246000fd5b7f4e487b7100000000000000000000000000000000000000000000000000000000600052604160045260246000fd5b6000601f19601f8301169050919050565b612fc181612de9565b8114612fcc57600080fd5b50565b612fd881612dfb565b8114612fe357600080fd5b50565b612fef81612e07565b8114612ffa57600080fd5b50565b61300681612e53565b811461301157600080fd5b5056fea264697066735822122059c813ffe7dec2e530e62ac94cd2a3be76fafd54b54ea80aae5a7d04b79c7ae164736f6c63430008000033",
  "immutableReferences": {},
  "source": "// SPDX-License-Identifier: GPL-3.0\npragma solidity ^0.8.0;\n\nimport \"openzeppelin-solidity/contracts/token/ERC721/extensions/ERC721Enumerable.sol\";\nimport \"openzeppelin-solidity/contracts/token/ERC721/extensions/ERC721URIStorage.sol\";\nimport \"./Pool.sol\";\n\ncontract NftToken is ERC721Enumerable {\n    Pool private bank;\n\n    constructor(Pool _bank) ERC721(\"Blockie\", \"BLC\") {\n        bank = _bank;\n    }\n\n    uint256 c = 0;\n    mapping(address => bool) public minted;\n    mapping(address => bool) public isPlayed;\n\n    mapping(uint256 => string) private _tokenURIs;\n\n    // function played() public {\n    //     isPlayed[msg.sender] = true;\n    // }\n    function tokenURI(uint256 _tokenId)\n        public\n        view\n        override\n        returns (string memory _tokenURI)\n    {\n        return _tokenURIs[_tokenId];\n    }\n\n    function _setTokenURI(uint256 tokenId, string memory _tokenURI)\n        internal\n        virtual\n    {\n        require(\n            _exists(tokenId),\n            \"ERC721Metadata: URI set of nonexistent token\"\n        );\n        _tokenURIs[tokenId] = _tokenURI;\n    }\n\n    function mint(address _to, string memory _tokenURI) public returns (bool) {\n        require(bank.checkBalance(_to) >= 1e16, \"Balance is Low\");\n        require(minted[_to] != true);\n        uint256 _tokenId = c++;\n        _mint(_to, _tokenId);\n        _setTokenURI(_tokenId, _tokenURI);\n        minted[_to] = true;\n        return true;\n    }\n}\n",
  "sourcePath": "D:/Ethereum/HelpPool/src/contracts/NftToken.sol",
  "compiler": {
    "name": "solc",
    "version": "0.8.0+commit.c7dfd78e.Emscripten.clang"
  },
  "schemaVersion": "3.3.4",
  "updatedAt": "2021-12-03T09:14:07.646Z",
  "networkType": "ethereum",
  "devdoc": {
    "kind": "dev",
    "methods": {
      "approve(address,uint256)": {
        "details": "See {IERC721-approve}."
      },
      "balanceOf(address)": {
        "details": "See {IERC721-balanceOf}."
      },
      "getApproved(uint256)": {
        "details": "See {IERC721-getApproved}."
      },
      "isApprovedForAll(address,address)": {
        "details": "See {IERC721-isApprovedForAll}."
      },
      "name()": {
        "details": "See {IERC721Metadata-name}."
      },
      "ownerOf(uint256)": {
        "details": "See {IERC721-ownerOf}."
      },
      "safeTransferFrom(address,address,uint256)": {
        "details": "See {IERC721-safeTransferFrom}."
      },
      "safeTransferFrom(address,address,uint256,bytes)": {
        "details": "See {IERC721-safeTransferFrom}."
      },
      "setApprovalForAll(address,bool)": {
        "details": "See {IERC721-setApprovalForAll}."
      },
      "supportsInterface(bytes4)": {
        "details": "See {IERC165-supportsInterface}."
      },
      "symbol()": {
        "details": "See {IERC721Metadata-symbol}."
      },
      "tokenByIndex(uint256)": {
        "details": "See {IERC721Enumerable-tokenByIndex}."
      },
      "tokenOfOwnerByIndex(address,uint256)": {
        "details": "See {IERC721Enumerable-tokenOfOwnerByIndex}."
      },
      "totalSupply()": {
        "details": "See {IERC721Enumerable-totalSupply}."
      },
      "transferFrom(address,address,uint256)": {
        "details": "See {IERC721-transferFrom}."
      }
    },
    "version": 1
  },
  "userdoc": {
    "kind": "user",
    "methods": {},
    "version": 1
  }
}