{
  "contractName": "NftToken",
  "abi": [
    {
      "inputs": [
        {
          "internalType": "contract Pool",
          "name": "_bank",
          "type": "address"
        }
      ],
      "stateMutability": "nonpayable",
      "type": "constructor"
    },
    {
      "anonymous": false,
      "inputs": [
        {
          "indexed": true,
          "internalType": "address",
          "name": "owner",
          "type": "address"
        },
        {
          "indexed": true,
          "internalType": "address",
          "name": "approved",
          "type": "address"
        },
        {
          "indexed": true,
          "internalType": "uint256",
          "name": "tokenId",
          "type": "uint256"
        }
      ],
      "name": "Approval",
      "type": "event"
    },
    {
      "anonymous": false,
      "inputs": [
        {
          "indexed": true,
          "internalType": "address",
          "name": "owner",
          "type": "address"
        },
        {
          "indexed": true,
          "internalType": "address",
          "name": "operator",
          "type": "address"
        },
        {
          "indexed": false,
          "internalType": "bool",
          "name": "approved",
          "type": "bool"
        }
      ],
      "name": "ApprovalForAll",
      "type": "event"
    },
    {
      "anonymous": false,
      "inputs": [
        {
          "indexed": true,
          "internalType": "address",
          "name": "from",
          "type": "address"
        },
        {
          "indexed": true,
          "internalType": "address",
          "name": "to",
          "type": "address"
        },
        {
          "indexed": true,
          "internalType": "uint256",
          "name": "tokenId",
          "type": "uint256"
        }
      ],
      "name": "Transfer",
      "type": "event"
    },
    {
      "inputs": [
        {
          "internalType": "address",
          "name": "to",
          "type": "address"
        },
        {
          "internalType": "uint256",
          "name": "tokenId",
          "type": "uint256"
        }
      ],
      "name": "approve",
      "outputs": [],
      "stateMutability": "nonpayable",
      "type": "function"
    },
    {
      "inputs": [
        {
          "internalType": "address",
          "name": "owner",
          "type": "address"
        }
      ],
      "name": "balanceOf",
      "outputs": [
        {
          "internalType": "uint256",
          "name": "",
          "type": "uint256"
        }
      ],
      "stateMutability": "view",
      "type": "function",
      "constant": true
    },
    {
      "inputs": [
        {
          "internalType": "uint256",
          "name": "tokenId",
          "type": "uint256"
        }
      ],
      "name": "getApproved",
      "outputs": [
        {
          "internalType": "address",
          "name": "",
          "type": "address"
        }
      ],
      "stateMutability": "view",
      "type": "function",
      "constant": true
    },
    {
      "inputs": [
        {
          "internalType": "address",
          "name": "owner",
          "type": "address"
        },
        {
          "internalType": "address",
          "name": "operator",
          "type": "address"
        }
      ],
      "name": "isApprovedForAll",
      "outputs": [
        {
          "internalType": "bool",
          "name": "",
          "type": "bool"
        }
      ],
      "stateMutability": "view",
      "type": "function",
      "constant": true
    },
    {
      "inputs": [
        {
          "internalType": "address",
          "name": "",
          "type": "address"
        }
      ],
      "name": "isPlayed",
      "outputs": [
        {
          "internalType": "bool",
          "name": "",
          "type": "bool"
        }
      ],
      "stateMutability": "view",
      "type": "function",
      "constant": true
    },
    {
      "inputs": [
        {
          "internalType": "address",
          "name": "",
          "type": "address"
        }
      ],
      "name": "minted",
      "outputs": [
        {
          "internalType": "bool",
          "name": "",
          "type": "bool"
        }
      ],
      "stateMutability": "view",
      "type": "function",
      "constant": true
    },
    {
      "inputs": [],
      "name": "name",
      "outputs": [
        {
          "internalType": "string",
          "name": "",
          "type": "string"
        }
      ],
      "stateMutability": "view",
      "type": "function",
      "constant": true
    },
    {
      "inputs": [
        {
          "internalType": "uint256",
          "name": "tokenId",
          "type": "uint256"
        }
      ],
      "name": "ownerOf",
      "outputs": [
        {
          "internalType": "address",
          "name": "",
          "type": "address"
        }
      ],
      "stateMutability": "view",
      "type": "function",
      "constant": true
    },
    {
      "inputs": [
        {
          "internalType": "address",
          "name": "from",
          "type": "address"
        },
        {
          "internalType": "address",
          "name": "to",
          "type": "address"
        },
        {
          "internalType": "uint256",
          "name": "tokenId",
          "type": "uint256"
        }
      ],
      "name": "safeTransferFrom",
      "outputs": [],
      "stateMutability": "nonpayable",
      "type": "function"
    },
    {
      "inputs": [
        {
          "internalType": "address",
          "name": "from",
          "type": "address"
        },
        {
          "internalType": "address",
          "name": "to",
          "type": "address"
        },
        {
          "internalType": "uint256",
          "name": "tokenId",
          "type": "uint256"
        },
        {
          "internalType": "bytes",
          "name": "_data",
          "type": "bytes"
        }
      ],
      "name": "safeTransferFrom",
      "outputs": [],
      "stateMutability": "nonpayable",
      "type": "function"
    },
    {
      "inputs": [
        {
          "internalType": "address",
          "name": "operator",
          "type": "address"
        },
        {
          "internalType": "bool",
          "name": "approved",
          "type": "bool"
        }
      ],
      "name": "setApprovalForAll",
      "outputs": [],
      "stateMutability": "nonpayable",
      "type": "function"
    },
    {
      "inputs": [
        {
          "internalType": "bytes4",
          "name": "interfaceId",
          "type": "bytes4"
        }
      ],
      "name": "supportsInterface",
      "outputs": [
        {
          "internalType": "bool",
          "name": "",
          "type": "bool"
        }
      ],
      "stateMutability": "view",
      "type": "function",
      "constant": true
    },
    {
      "inputs": [],
      "name": "symbol",
      "outputs": [
        {
          "internalType": "string",
          "name": "",
          "type": "string"
        }
      ],
      "stateMutability": "view",
      "type": "function",
      "constant": true
    },
    {
      "inputs": [
        {
          "internalType": "uint256",
          "name": "tokenId",
          "type": "uint256"
        }
      ],
      "name": "tokenURI",
      "outputs": [
        {
          "internalType": "string",
          "name": "",
          "type": "string"
        }
      ],
      "stateMutability": "view",
      "type": "function",
      "constant": true
    },
    {
      "inputs": [
        {
          "internalType": "address",
          "name": "from",
          "type": "address"
        },
        {
          "internalType": "address",
          "name": "to",
          "type": "address"
        },
        {
          "internalType": "uint256",
          "name": "tokenId",
          "type": "uint256"
        }
      ],
      "name": "transferFrom",
      "outputs": [],
      "stateMutability": "nonpayable",
      "type": "function"
    },
    {
      "inputs": [
        {
          "internalType": "address",
          "name": "_to",
          "type": "address"
        },
        {
          "internalType": "string",
          "name": "_tokenURI",
          "type": "string"
        }
      ],
      "name": "mint",
      "outputs": [
        {
          "internalType": "bool",
          "name": "",
          "type": "bool"
        }
      ],
      "stateMutability": "nonpayable",
      "type": "function"
    }
  ],
  "bytecode": "0x608060405260006008553480156200001657600080fd5b50604051620030533803806200305383398181016040528101906200003c9190620001eb565b6040518060400160405280600781526020017f426c6f636b6965000000000000000000000000000000000000000000000000008152506040518060400160405280600381526020017f424c4300000000000000000000000000000000000000000000000000000000008152508160009080519060200190620000c092919062000124565b508060019080519060200190620000d992919062000124565b50505080600760006101000a81548173ffffffffffffffffffffffffffffffffffffffff021916908373ffffffffffffffffffffffffffffffffffffffff16021790555050620002de565b82805462000132906200025f565b90600052602060002090601f016020900481019282620001565760008555620001a2565b82601f106200017157805160ff1916838001178555620001a2565b82800160010185558215620001a2579182015b82811115620001a157825182559160200191906001019062000184565b5b509050620001b19190620001b5565b5090565b5b80821115620001d0576000816000905550600101620001b6565b5090565b600081519050620001e581620002c4565b92915050565b600060208284031215620001fe57600080fd5b60006200020e84828501620001d4565b91505092915050565b600062000224826200023f565b9050919050565b6000620002388262000217565b9050919050565b600073ffffffffffffffffffffffffffffffffffffffff82169050919050565b600060028204905060018216806200027857607f821691505b602082108114156200028f576200028e62000295565b5b50919050565b7f4e487b7100000000000000000000000000000000000000000000000000000000600052602260045260246000fd5b620002cf816200022b565b8114620002db57600080fd5b50565b612d6580620002ee6000396000f3fe608060405234801561001057600080fd5b50600436106101005760003560e01c80636352211e11610097578063b88d4fde11610066578063b88d4fde146102d1578063c87b56dd146102ed578063d0def5211461031d578063e985e9c51461034d57610100565b80636352211e1461023757806370a082311461026757806395d89b4114610297578063a22cb465146102b557610100565b80631e7269c5116100d35780631e7269c51461019f57806323b872dd146101cf57806342842e0e146101eb5780634b50c6a61461020757610100565b806301ffc9a71461010557806306fdde0314610135578063081812fc14610153578063095ea7b314610183575b600080fd5b61011f600480360381019061011a9190611e70565b61037d565b60405161012c919061269d565b60405180910390f35b61013d61045f565b60405161014a91906126b8565b60405180910390f35b61016d60048036038101906101689190611ec2565b6104f1565b60405161017a9190612636565b60405180910390f35b61019d60048036038101906101989190611e34565b610576565b005b6101b960048036038101906101b49190611c75565b61068e565b6040516101c6919061269d565b60405180910390f35b6101e960048036038101906101e49190611cda565b6106ae565b005b61020560048036038101906102009190611cda565b61070e565b005b610221600480360381019061021c9190611c75565b61072e565b60405161022e919061269d565b60405180910390f35b610251600480360381019061024c9190611ec2565b61074e565b60405161025e9190612636565b60405180910390f35b610281600480360381019061027c9190611c75565b610800565b60405161028e91906128fa565b60405180910390f35b61029f6108b8565b6040516102ac91906126b8565b60405180910390f35b6102cf60048036038101906102ca9190611da4565b61094a565b005b6102eb60048036038101906102e69190611d29565b610960565b005b61030760048036038101906103029190611ec2565b6109c2565b60405161031491906126b8565b60405180910390f35b61033760048036038101906103329190611de0565b610b14565b604051610344919061269d565b60405180910390f35b61036760048036038101906103629190611c9e565b610cfa565b604051610374919061269d565b60405180910390f35b60007f80ac58cd000000000000000000000000000000000000000000000000000000007bffffffffffffffffffffffffffffffffffffffffffffffffffffffff1916827bffffffffffffffffffffffffffffffffffffffffffffffffffffffff1916148061044857507f5b5e139f000000000000000000000000000000000000000000000000000000007bffffffffffffffffffffffffffffffffffffffffffffffffffffffff1916827bffffffffffffffffffffffffffffffffffffffffffffffffffffffff1916145b80610458575061045782610d8e565b5b9050919050565b60606000805461046e90612b5a565b80601f016020809104026020016040519081016040528092919081815260200182805461049a90612b5a565b80156104e75780601f106104bc576101008083540402835291602001916104e7565b820191906000526020600020905b8154815290600101906020018083116104ca57829003601f168201915b5050505050905090565b60006104fc82610df8565b61053b576040517f08c379a00000000000000000000000000000000000000000000000000000000081526004016105329061285a565b60405180910390fd5b6004600083815260200190815260200160002060009054906101000a900473ffffffffffffffffffffffffffffffffffffffff169050919050565b60006105818261074e565b90508073ffffffffffffffffffffffffffffffffffffffff168373ffffffffffffffffffffffffffffffffffffffff1614156105f2576040517f08c379a00000000000000000000000000000000000000000000000000000000081526004016105e9906128ba565b60405180910390fd5b8073ffffffffffffffffffffffffffffffffffffffff16610611610e64565b73ffffffffffffffffffffffffffffffffffffffff161480610640575061063f8161063a610e64565b610cfa565b5b61067f576040517f08c379a00000000000000000000000000000000000000000000000000000000081526004016106769061279a565b60405180910390fd5b6106898383610e6c565b505050565b60096020528060005260406000206000915054906101000a900460ff1681565b6106bf6106b9610e64565b82610f25565b6106fe576040517f08c379a00000000000000000000000000000000000000000000000000000000081526004016106f5906128da565b60405180910390fd5b610709838383611003565b505050565b61072983838360405180602001604052806000815250610960565b505050565b600a6020528060005260406000206000915054906101000a900460ff1681565b6000806002600084815260200190815260200160002060009054906101000a900473ffffffffffffffffffffffffffffffffffffffff169050600073ffffffffffffffffffffffffffffffffffffffff168173ffffffffffffffffffffffffffffffffffffffff1614156107f7576040517f08c379a00000000000000000000000000000000000000000000000000000000081526004016107ee906127da565b60405180910390fd5b80915050919050565b60008073ffffffffffffffffffffffffffffffffffffffff168273ffffffffffffffffffffffffffffffffffffffff161415610871576040517f08c379a0000000000000000000000000000000000000000000000000000000008152600401610868906127ba565b60405180910390fd5b600360008373ffffffffffffffffffffffffffffffffffffffff1673ffffffffffffffffffffffffffffffffffffffff168152602001908152602001600020549050919050565b6060600180546108c790612b5a565b80601f01602080910402602001604051908101604052809291908181526020018280546108f390612b5a565b80156109405780601f1061091557610100808354040283529160200191610940565b820191906000526020600020905b81548152906001019060200180831161092357829003601f168201915b5050505050905090565b61095c610955610e64565b838361125f565b5050565b61097161096b610e64565b83610f25565b6109b0576040517f08c379a00000000000000000000000000000000000000000000000000000000081526004016109a7906128da565b60405180910390fd5b6109bc848484846113cc565b50505050565b60606109cd82610df8565b610a0c576040517f08c379a0000000000000000000000000000000000000000000000000000000008152600401610a039061283a565b60405180910390fd5b6000600660008481526020019081526020016000208054610a2c90612b5a565b80601f0160208091040260200160405190810160405280929190818152602001828054610a5890612b5a565b8015610aa55780601f10610a7a57610100808354040283529160200191610aa5565b820191906000526020600020905b815481529060010190602001808311610a8857829003601f168201915b505050505090506000610ab6611428565b9050600081511415610acc578192505050610b0f565b600082511115610b01578082604051602001610ae9929190612612565b60405160208183030381529060405292505050610b0f565b610b0a8461143f565b925050505b919050565b6000662386f26fc10000600760009054906101000a900473ffffffffffffffffffffffffffffffffffffffff1673ffffffffffffffffffffffffffffffffffffffff16635f515226856040518263ffffffff1660e01b8152600401610b799190612636565b60206040518083038186803b158015610b9157600080fd5b505afa158015610ba5573d6000803e3d6000fd5b505050506040513d601f19601f82011682018060405250810190610bc99190611eeb565b1015610c0a576040517f08c379a0000000000000000000000000000000000000000000000000000000008152600401610c01906126da565b60405180910390fd5b60011515600960008573ffffffffffffffffffffffffffffffffffffffff1673ffffffffffffffffffffffffffffffffffffffff16815260200190815260200160002060009054906101000a900460ff1615151415610c6857600080fd5b600060086000815480929190610c7d90612b8c565b919050559050610c8d84826114e6565b610c9781846116b4565b6001600960008673ffffffffffffffffffffffffffffffffffffffff1673ffffffffffffffffffffffffffffffffffffffff16815260200190815260200160002060006101000a81548160ff021916908315150217905550600191505092915050565b6000600560008473ffffffffffffffffffffffffffffffffffffffff1673ffffffffffffffffffffffffffffffffffffffff16815260200190815260200160002060008373ffffffffffffffffffffffffffffffffffffffff1673ffffffffffffffffffffffffffffffffffffffff16815260200190815260200160002060009054906101000a900460ff16905092915050565b60007f01ffc9a7000000000000000000000000000000000000000000000000000000007bffffffffffffffffffffffffffffffffffffffffffffffffffffffff1916827bffffffffffffffffffffffffffffffffffffffffffffffffffffffff1916149050919050565b60008073ffffffffffffffffffffffffffffffffffffffff166002600084815260200190815260200160002060009054906101000a900473ffffffffffffffffffffffffffffffffffffffff1673ffffffffffffffffffffffffffffffffffffffff1614159050919050565b600033905090565b816004600083815260200190815260200160002060006101000a81548173ffffffffffffffffffffffffffffffffffffffff021916908373ffffffffffffffffffffffffffffffffffffffff160217905550808273ffffffffffffffffffffffffffffffffffffffff16610edf8361074e565b73ffffffffffffffffffffffffffffffffffffffff167f8c5be1e5ebec7d5bd14f71427d1e84f3dd0314c0f7b2291e5b200ac8c7c3b92560405160405180910390a45050565b6000610f3082610df8565b610f6f576040517f08c379a0000000000000000000000000000000000000000000000000000000008152600401610f669061277a565b60405180910390fd5b6000610f7a8361074e565b90508073ffffffffffffffffffffffffffffffffffffffff168473ffffffffffffffffffffffffffffffffffffffff161480610fe957508373ffffffffffffffffffffffffffffffffffffffff16610fd1846104f1565b73ffffffffffffffffffffffffffffffffffffffff16145b80610ffa5750610ff98185610cfa565b5b91505092915050565b8273ffffffffffffffffffffffffffffffffffffffff166110238261074e565b73ffffffffffffffffffffffffffffffffffffffff1614611079576040517f08c379a00000000000000000000000000000000000000000000000000000000081526004016110709061287a565b60405180910390fd5b600073ffffffffffffffffffffffffffffffffffffffff168273ffffffffffffffffffffffffffffffffffffffff1614156110e9576040517f08c379a00000000000000000000000000000000000000000000000000000000081526004016110e09061273a565b60405180910390fd5b6110f4838383611728565b6110ff600082610e6c565b6001600360008573ffffffffffffffffffffffffffffffffffffffff1673ffffffffffffffffffffffffffffffffffffffff168152602001908152602001600020600082825461114f9190612a70565b925050819055506001600360008473ffffffffffffffffffffffffffffffffffffffff1673ffffffffffffffffffffffffffffffffffffffff16815260200190815260200160002060008282546111a691906129e9565b92505081905550816002600083815260200190815260200160002060006101000a81548173ffffffffffffffffffffffffffffffffffffffff021916908373ffffffffffffffffffffffffffffffffffffffff160217905550808273ffffffffffffffffffffffffffffffffffffffff168473ffffffffffffffffffffffffffffffffffffffff167fddf252ad1be2c89b69c2b068fc378daa952ba7f163c4a11628f55a4df523b3ef60405160405180910390a4505050565b8173ffffffffffffffffffffffffffffffffffffffff168373ffffffffffffffffffffffffffffffffffffffff1614156112ce576040517f08c379a00000000000000000000000000000000000000000000000000000000081526004016112c59061275a565b60405180910390fd5b80600560008573ffffffffffffffffffffffffffffffffffffffff1673ffffffffffffffffffffffffffffffffffffffff16815260200190815260200160002060008473ffffffffffffffffffffffffffffffffffffffff1673ffffffffffffffffffffffffffffffffffffffff16815260200190815260200160002060006101000a81548160ff0219169083151502179055508173ffffffffffffffffffffffffffffffffffffffff168373ffffffffffffffffffffffffffffffffffffffff167f17307eab39ab6107e8899845ad3d59bd9653f200f220920489ca2b5937696c31836040516113bf919061269d565b60405180910390a3505050565b6113d7848484611003565b6113e38484848461172d565b611422576040517f08c379a0000000000000000000000000000000000000000000000000000000008152600401611419906126fa565b60405180910390fd5b50505050565b606060405180602001604052806000815250905090565b606061144a82610df8565b611489576040517f08c379a00000000000000000000000000000000000000000000000000000000081526004016114809061289a565b60405180910390fd5b6000611493611428565b905060008151116114b357604051806020016040528060008152506114de565b806114bd846118c4565b6040516020016114ce929190612612565b6040516020818303038152906040525b915050919050565b600073ffffffffffffffffffffffffffffffffffffffff168273ffffffffffffffffffffffffffffffffffffffff161415611556576040517f08c379a000000000000000000000000000000000000000000000000000000000815260040161154d9061281a565b60405180910390fd5b61155f81610df8565b1561159f576040517f08c379a00000000000000000000000000000000000000000000000000000000081526004016115969061271a565b60405180910390fd5b6115ab60008383611728565b6001600360008473ffffffffffffffffffffffffffffffffffffffff1673ffffffffffffffffffffffffffffffffffffffff16815260200190815260200160002060008282546115fb91906129e9565b92505081905550816002600083815260200190815260200160002060006101000a81548173ffffffffffffffffffffffffffffffffffffffff021916908373ffffffffffffffffffffffffffffffffffffffff160217905550808273ffffffffffffffffffffffffffffffffffffffff16600073ffffffffffffffffffffffffffffffffffffffff167fddf252ad1be2c89b69c2b068fc378daa952ba7f163c4a11628f55a4df523b3ef60405160405180910390a45050565b6116bd82610df8565b6116fc576040517f08c379a00000000000000000000000000000000000000000000000000000000081526004016116f3906127fa565b60405180910390fd5b80600660008481526020019081526020016000209080519060200190611723929190611a84565b505050565b505050565b600061174e8473ffffffffffffffffffffffffffffffffffffffff16611a71565b156118b7578373ffffffffffffffffffffffffffffffffffffffff1663150b7a02611777610e64565b8786866040518563ffffffff1660e01b81526004016117999493929190612651565b602060405180830381600087803b1580156117b357600080fd5b505af19250505080156117e457506040513d601f19601f820116820180604052508101906117e19190611e99565b60015b611867573d8060008114611814576040519150601f19603f3d011682016040523d82523d6000602084013e611819565b606091505b5060008151141561185f576040517f08c379a0000000000000000000000000000000000000000000000000000000008152600401611856906126fa565b60405180910390fd5b805181602001fd5b63150b7a0260e01b7bffffffffffffffffffffffffffffffffffffffffffffffffffffffff1916817bffffffffffffffffffffffffffffffffffffffffffffffffffffffff1916149150506118bc565b600190505b949350505050565b6060600082141561190c576040518060400160405280600181526020017f30000000000000000000000000000000000000000000000000000000000000008152509050611a6c565b600082905060005b6000821461193e57808061192790612b8c565b915050600a826119379190612a3f565b9150611914565b60008167ffffffffffffffff811115611980577f4e487b7100000000000000000000000000000000000000000000000000000000600052604160045260246000fd5b6040519080825280601f01601f1916602001820160405280156119b25781602001600182028036833780820191505090505b5090505b60008514611a65576001826119cb9190612a70565b9150600a856119da9190612bd5565b60306119e691906129e9565b60f81b818381518110611a22577f4e487b7100000000000000000000000000000000000000000000000000000000600052603260045260246000fd5b60200101907effffffffffffffffffffffffffffffffffffffffffffffffffffffffffffff1916908160001a905350600a85611a5e9190612a3f565b94506119b6565b8093505050505b919050565b600080823b905060008111915050919050565b828054611a9090612b5a565b90600052602060002090601f016020900481019282611ab25760008555611af9565b82601f10611acb57805160ff1916838001178555611af9565b82800160010185558215611af9579182015b82811115611af8578251825591602001919060010190611add565b5b509050611b069190611b0a565b5090565b5b80821115611b23576000816000905550600101611b0b565b5090565b6000611b3a611b3584612946565b612915565b905082815260208101848484011115611b5257600080fd5b611b5d848285612b18565b509392505050565b6000611b78611b7384612976565b612915565b905082815260208101848484011115611b9057600080fd5b611b9b848285612b18565b509392505050565b600081359050611bb281612cd3565b92915050565b600081359050611bc781612cea565b92915050565b600081359050611bdc81612d01565b92915050565b600081519050611bf181612d01565b92915050565b600082601f830112611c0857600080fd5b8135611c18848260208601611b27565b91505092915050565b600082601f830112611c3257600080fd5b8135611c42848260208601611b65565b91505092915050565b600081359050611c5a81612d18565b92915050565b600081519050611c6f81612d18565b92915050565b600060208284031215611c8757600080fd5b6000611c9584828501611ba3565b91505092915050565b60008060408385031215611cb157600080fd5b6000611cbf85828601611ba3565b9250506020611cd085828601611ba3565b9150509250929050565b600080600060608486031215611cef57600080fd5b6000611cfd86828701611ba3565b9350506020611d0e86828701611ba3565b9250506040611d1f86828701611c4b565b9150509250925092565b60008060008060808587031215611d3f57600080fd5b6000611d4d87828801611ba3565b9450506020611d5e87828801611ba3565b9350506040611d6f87828801611c4b565b925050606085013567ffffffffffffffff811115611d8c57600080fd5b611d9887828801611bf7565b91505092959194509250565b60008060408385031215611db757600080fd5b6000611dc585828601611ba3565b9250506020611dd685828601611bb8565b9150509250929050565b60008060408385031215611df357600080fd5b6000611e0185828601611ba3565b925050602083013567ffffffffffffffff811115611e1e57600080fd5b611e2a85828601611c21565b9150509250929050565b60008060408385031215611e4757600080fd5b6000611e5585828601611ba3565b9250506020611e6685828601611c4b565b9150509250929050565b600060208284031215611e8257600080fd5b6000611e9084828501611bcd565b91505092915050565b600060208284031215611eab57600080fd5b6000611eb984828501611be2565b91505092915050565b600060208284031215611ed457600080fd5b6000611ee284828501611c4b565b91505092915050565b600060208284031215611efd57600080fd5b6000611f0b84828501611c60565b91505092915050565b611f1d81612aa4565b82525050565b611f2c81612ab6565b82525050565b6000611f3d826129a6565b611f4781856129bc565b9350611f57818560208601612b27565b611f6081612cc2565b840191505092915050565b6000611f76826129b1565b611f8081856129cd565b9350611f90818560208601612b27565b611f9981612cc2565b840191505092915050565b6000611faf826129b1565b611fb981856129de565b9350611fc9818560208601612b27565b80840191505092915050565b6000611fe2600e836129cd565b91507f42616c616e6365206973204c6f770000000000000000000000000000000000006000830152602082019050919050565b60006120226032836129cd565b91507f4552433732313a207472616e7366657220746f206e6f6e20455243373231526560008301527f63656976657220696d706c656d656e74657200000000000000000000000000006020830152604082019050919050565b6000612088601c836129cd565b91507f4552433732313a20746f6b656e20616c7265616479206d696e746564000000006000830152602082019050919050565b60006120c86024836129cd565b91507f4552433732313a207472616e7366657220746f20746865207a65726f2061646460008301527f72657373000000000000000000000000000000000000000000000000000000006020830152604082019050919050565b600061212e6019836129cd565b91507f4552433732313a20617070726f766520746f2063616c6c6572000000000000006000830152602082019050919050565b600061216e602c836129cd565b91507f4552433732313a206f70657261746f7220717565727920666f72206e6f6e657860008301527f697374656e7420746f6b656e00000000000000000000000000000000000000006020830152604082019050919050565b60006121d46038836129cd565b91507f4552433732313a20617070726f76652063616c6c6572206973206e6f74206f7760008301527f6e6572206e6f7220617070726f76656420666f7220616c6c00000000000000006020830152604082019050919050565b600061223a602a836129cd565b91507f4552433732313a2062616c616e636520717565727920666f7220746865207a6560008301527f726f2061646472657373000000000000000000000000000000000000000000006020830152604082019050919050565b60006122a06029836129cd565b91507f4552433732313a206f776e657220717565727920666f72206e6f6e657869737460008301527f656e7420746f6b656e00000000000000000000000000000000000000000000006020830152604082019050919050565b6000612306602e836129cd565b91507f45524337323155524953746f726167653a2055524920736574206f66206e6f6e60008301527f6578697374656e7420746f6b656e0000000000000000000000000000000000006020830152604082019050919050565b600061236c6020836129cd565b91507f4552433732313a206d696e7420746f20746865207a65726f20616464726573736000830152602082019050919050565b60006123ac6031836129cd565b91507f45524337323155524953746f726167653a2055524920717565727920666f722060008301527f6e6f6e6578697374656e7420746f6b656e0000000000000000000000000000006020830152604082019050919050565b6000612412602c836129cd565b91507f4552433732313a20617070726f76656420717565727920666f72206e6f6e657860008301527f697374656e7420746f6b656e00000000000000000000000000000000000000006020830152604082019050919050565b60006124786029836129cd565b91507f4552433732313a207472616e73666572206f6620746f6b656e2074686174206960008301527f73206e6f74206f776e00000000000000000000000000000000000000000000006020830152604082019050919050565b60006124de602f836129cd565b91507f4552433732314d657461646174613a2055524920717565727920666f72206e6f60008301527f6e6578697374656e7420746f6b656e00000000000000000000000000000000006020830152604082019050919050565b60006125446021836129cd565b91507f4552433732313a20617070726f76616c20746f2063757272656e74206f776e6560008301527f72000000000000000000000000000000000000000000000000000000000000006020830152604082019050919050565b60006125aa6031836129cd565b91507f4552433732313a207472616e736665722063616c6c6572206973206e6f74206f60008301527f776e6572206e6f7220617070726f7665640000000000000000000000000000006020830152604082019050919050565b61260c81612b0e565b82525050565b600061261e8285611fa4565b915061262a8284611fa4565b91508190509392505050565b600060208201905061264b6000830184611f14565b92915050565b60006080820190506126666000830187611f14565b6126736020830186611f14565b6126806040830185612603565b81810360608301526126928184611f32565b905095945050505050565b60006020820190506126b26000830184611f23565b92915050565b600060208201905081810360008301526126d28184611f6b565b905092915050565b600060208201905081810360008301526126f381611fd5565b9050919050565b6000602082019050818103600083015261271381612015565b9050919050565b600060208201905081810360008301526127338161207b565b9050919050565b60006020820190508181036000830152612753816120bb565b9050919050565b6000602082019050818103600083015261277381612121565b9050919050565b6000602082019050818103600083015261279381612161565b9050919050565b600060208201905081810360008301526127b3816121c7565b9050919050565b600060208201905081810360008301526127d38161222d565b9050919050565b600060208201905081810360008301526127f381612293565b9050919050565b60006020820190508181036000830152612813816122f9565b9050919050565b600060208201905081810360008301526128338161235f565b9050919050565b600060208201905081810360008301526128538161239f565b9050919050565b6000602082019050818103600083015261287381612405565b9050919050565b600060208201905081810360008301526128938161246b565b9050919050565b600060208201905081810360008301526128b3816124d1565b9050919050565b600060208201905081810360008301526128d381612537565b9050919050565b600060208201905081810360008301526128f38161259d565b9050919050565b600060208201905061290f6000830184612603565b92915050565b6000604051905081810181811067ffffffffffffffff8211171561293c5761293b612c93565b5b8060405250919050565b600067ffffffffffffffff82111561296157612960612c93565b5b601f19601f8301169050602081019050919050565b600067ffffffffffffffff82111561299157612990612c93565b5b601f19601f8301169050602081019050919050565b600081519050919050565b600081519050919050565b600082825260208201905092915050565b600082825260208201905092915050565b600081905092915050565b60006129f482612b0e565b91506129ff83612b0e565b9250827fffffffffffffffffffffffffffffffffffffffffffffffffffffffffffffffff03821115612a3457612a33612c06565b5b828201905092915050565b6000612a4a82612b0e565b9150612a5583612b0e565b925082612a6557612a64612c35565b5b828204905092915050565b6000612a7b82612b0e565b9150612a8683612b0e565b925082821015612a9957612a98612c06565b5b828203905092915050565b6000612aaf82612aee565b9050919050565b60008115159050919050565b60007fffffffff0000000000000000000000000000000000000000000000000000000082169050919050565b600073ffffffffffffffffffffffffffffffffffffffff82169050919050565b6000819050919050565b82818337600083830152505050565b60005b83811015612b45578082015181840152602081019050612b2a565b83811115612b54576000848401525b50505050565b60006002820490506001821680612b7257607f821691505b60208210811415612b8657612b85612c64565b5b50919050565b6000612b9782612b0e565b91507fffffffffffffffffffffffffffffffffffffffffffffffffffffffffffffffff821415612bca57612bc9612c06565b5b600182019050919050565b6000612be082612b0e565b9150612beb83612b0e565b925082612bfb57612bfa612c35565b5b828206905092915050565b7f4e487b7100000000000000000000000000000000000000000000000000000000600052601160045260246000fd5b7f4e487b7100000000000000000000000000000000000000000000000000000000600052601260045260246000fd5b7f4e487b7100000000000000000000000000000000000000000000000000000000600052602260045260246000fd5b7f4e487b7100000000000000000000000000000000000000000000000000000000600052604160045260246000fd5b6000601f19601f8301169050919050565b612cdc81612aa4565b8114612ce757600080fd5b50565b612cf381612ab6565b8114612cfe57600080fd5b50565b612d0a81612ac2565b8114612d1557600080fd5b50565b612d2181612b0e565b8114612d2c57600080fd5b5056fea264697066735822122081e7b9b2a8cef04e9a89d8cf180f51f238711199335d5ee3412d1b7c0a3f576a64736f6c63430008000033",
  "immutableReferences": {},
  "source": "// SPDX-License-Identifier: GPL-3.0\npragma solidity ^0.8.0;\n\nimport \"openzeppelin-solidity/contracts/token/ERC721/extensions/ERC721URIStorage.sol\";\nimport \"./Pool.sol\";\n\ncontract NftToken is ERC721URIStorage {\n    Pool private bank;\n\n    constructor(Pool _bank) ERC721(\"Blockie\", \"BLC\") {\n        bank = _bank;\n    }\n\n    uint256 c = 0;\n    mapping(address => bool) public minted;\n    mapping(address => bool) public isPlayed;\n\n    // function played() public {\n    //     isPlayed[msg.sender] = true;\n    // }\n\n    function mint(address _to, string memory _tokenURI) public returns (bool) {\n        require(bank.checkBalance(_to) >= 1e16, \"Balance is Low\");\n        require(minted[_to] != true);\n        uint256 _tokenId = c++;\n        _mint(_to, _tokenId);\n        _setTokenURI(_tokenId, _tokenURI);\n        minted[_to] = true;\n        return true;\n    }\n}\n",
  "sourcePath": "D:/Ethereum/HelpPool/src/contracts/NftToken.sol",
  "compiler": {
    "name": "solc",
    "version": "0.8.0+commit.c7dfd78e.Emscripten.clang"
  },
  "schemaVersion": "3.3.4",
  "updatedAt": "2021-11-27T22:15:44.806Z",
  "networkType": "ethereum",
  "devdoc": {
    "kind": "dev",
    "methods": {
      "approve(address,uint256)": {
        "details": "See {IERC721-approve}."
      },
      "balanceOf(address)": {
        "details": "See {IERC721-balanceOf}."
      },
      "getApproved(uint256)": {
        "details": "See {IERC721-getApproved}."
      },
      "isApprovedForAll(address,address)": {
        "details": "See {IERC721-isApprovedForAll}."
      },
      "name()": {
        "details": "See {IERC721Metadata-name}."
      },
      "ownerOf(uint256)": {
        "details": "See {IERC721-ownerOf}."
      },
      "safeTransferFrom(address,address,uint256)": {
        "details": "See {IERC721-safeTransferFrom}."
      },
      "safeTransferFrom(address,address,uint256,bytes)": {
        "details": "See {IERC721-safeTransferFrom}."
      },
      "setApprovalForAll(address,bool)": {
        "details": "See {IERC721-setApprovalForAll}."
      },
      "supportsInterface(bytes4)": {
        "details": "See {IERC165-supportsInterface}."
      },
      "symbol()": {
        "details": "See {IERC721Metadata-symbol}."
      },
      "tokenURI(uint256)": {
        "details": "See {IERC721Metadata-tokenURI}."
      },
      "transferFrom(address,address,uint256)": {
        "details": "See {IERC721-transferFrom}."
      }
    },
    "version": 1
  },
  "userdoc": {
    "kind": "user",
    "methods": {},
    "version": 1
  }
}