{
  "contractName": "Pool",
  "abi": [
    {
      "inputs": [
        {
          "internalType": "contract Token",
          "name": "_token",
          "type": "address"
        }
      ],
      "stateMutability": "nonpayable",
      "type": "constructor"
    },
    {
      "anonymous": false,
      "inputs": [
        {
          "indexed": true,
          "internalType": "address",
          "name": "user",
          "type": "address"
        },
        {
          "indexed": false,
          "internalType": "uint256",
          "name": "etherAmount",
          "type": "uint256"
        },
        {
          "indexed": false,
          "internalType": "uint256",
          "name": "timeStart",
          "type": "uint256"
        }
      ],
      "name": "Deposit",
      "type": "event"
    },
    {
      "anonymous": false,
      "inputs": [
        {
          "indexed": true,
          "internalType": "address",
          "name": "user",
          "type": "address"
        },
        {
          "indexed": false,
          "internalType": "uint256",
          "name": "etherAmount",
          "type": "uint256"
        },
        {
          "indexed": false,
          "internalType": "uint256",
          "name": "depositTime",
          "type": "uint256"
        },
        {
          "indexed": false,
          "internalType": "uint256",
          "name": "interest",
          "type": "uint256"
        }
      ],
      "name": "Withdraw",
      "type": "event"
    },
    {
      "inputs": [
        {
          "internalType": "address",
          "name": "",
          "type": "address"
        }
      ],
      "name": "depositStart",
      "outputs": [
        {
          "internalType": "uint256",
          "name": "",
          "type": "uint256"
        }
      ],
      "stateMutability": "view",
      "type": "function",
      "constant": true
    },
    {
      "inputs": [
        {
          "internalType": "address",
          "name": "",
          "type": "address"
        }
      ],
      "name": "etherBalanceOf",
      "outputs": [
        {
          "internalType": "uint256",
          "name": "",
          "type": "uint256"
        }
      ],
      "stateMutability": "view",
      "type": "function",
      "constant": true
    },
    {
      "inputs": [
        {
          "internalType": "address",
          "name": "",
          "type": "address"
        }
      ],
      "name": "isDeposited",
      "outputs": [
        {
          "internalType": "bool",
          "name": "",
          "type": "bool"
        }
      ],
      "stateMutability": "view",
      "type": "function",
      "constant": true
    },
    {
      "inputs": [],
      "name": "deposit",
      "outputs": [],
      "stateMutability": "payable",
      "type": "function",
      "payable": true
    },
    {
      "inputs": [
        {
          "internalType": "address",
          "name": "_user",
          "type": "address"
        }
      ],
      "name": "checkBalance",
      "outputs": [
        {
          "internalType": "uint256",
          "name": "",
          "type": "uint256"
        }
      ],
      "stateMutability": "view",
      "type": "function",
      "constant": true
    },
    {
      "inputs": [],
      "name": "withdraw",
      "outputs": [],
      "stateMutability": "payable",
      "type": "function",
      "payable": true
    }
  ],
  "bytecode": "0x608060405234801561001057600080fd5b50604051610df0380380610df08339818101604052810190610032919061008d565b806000806101000a81548173ffffffffffffffffffffffffffffffffffffffff021916908373ffffffffffffffffffffffffffffffffffffffff16021790555050610111565b600081519050610087816100fa565b92915050565b60006020828403121561009f57600080fd5b60006100ad84828501610078565b91505092915050565b60006100c1826100da565b9050919050565b60006100d3826100b6565b9050919050565b600073ffffffffffffffffffffffffffffffffffffffff82169050919050565b610103816100c8565b811461010e57600080fd5b50565b610cd0806101206000396000f3fe6080604052600436106100555760003560e01c8063179fc99f1461005a5780633ccfd60b146100975780635f515226146100a157806373732024146100de578063d0e30db01461011b578063ff87930a14610125575b600080fd5b34801561006657600080fd5b50610081600480360381019061007c919061085c565b610162565b60405161008e9190610a3c565b60405180910390f35b61009f61017a565b005b3480156100ad57600080fd5b506100c860048036038101906100c3919061085c565b610523565b6040516100d59190610a3c565b60405180910390f35b3480156100ea57600080fd5b506101056004803603810190610100919061085c565b61056c565b60405161011291906109c1565b60405180910390f35b61012361058c565b005b34801561013157600080fd5b5061014c6004803603810190610147919061085c565b61082f565b6040516101599190610a3c565b60405180910390f35b60016020528060005260406000206000915090505481565b60011515600360003373ffffffffffffffffffffffffffffffffffffffff1673ffffffffffffffffffffffffffffffffffffffff16815260200190815260200160002060009054906101000a900460ff1615151461020d576040517f08c379a0000000000000000000000000000000000000000000000000000000008152600401610204906109dc565b60405180910390fd5b6000600160003373ffffffffffffffffffffffffffffffffffffffff1673ffffffffffffffffffffffffffffffffffffffff1681526020019081526020016000205490506000600260003373ffffffffffffffffffffffffffffffffffffffff1673ffffffffffffffffffffffffffffffffffffffff168152602001908152602001600020544261029e9190610ba9565b90506000662386f26fc10000600160003373ffffffffffffffffffffffffffffffffffffffff1673ffffffffffffffffffffffffffffffffffffffff168152602001908152602001600020546102f49190610b1e565b6301e337316103039190610b4f565b9050600082826103139190610b4f565b90503373ffffffffffffffffffffffffffffffffffffffff166108fc859081150290604051600060405180830381858888f1935050505015801561035b573d6000803e3d6000fd5b5060008054906101000a900473ffffffffffffffffffffffffffffffffffffffff1673ffffffffffffffffffffffffffffffffffffffff166340c10f1933836040518363ffffffff1660e01b81526004016103b7929190610998565b600060405180830381600087803b1580156103d157600080fd5b505af11580156103e5573d6000803e3d6000fd5b505050506000600160003373ffffffffffffffffffffffffffffffffffffffff1673ffffffffffffffffffffffffffffffffffffffff168152602001908152602001600020819055506000600260003373ffffffffffffffffffffffffffffffffffffffff1673ffffffffffffffffffffffffffffffffffffffff168152602001908152602001600020819055506000600360003373ffffffffffffffffffffffffffffffffffffffff1673ffffffffffffffffffffffffffffffffffffffff16815260200190815260200160002060006101000a81548160ff0219169083151502179055503373ffffffffffffffffffffffffffffffffffffffff167f02f25270a4d87bea75db541cdfe559334a275b4a233520ed6c0a2429667cca9485858460405161051593929190610a80565b60405180910390a250505050565b6000600160008373ffffffffffffffffffffffffffffffffffffffff1673ffffffffffffffffffffffffffffffffffffffff168152602001908152602001600020549050919050565b60036020528060005260406000206000915054906101000a900460ff1681565b60001515600360003373ffffffffffffffffffffffffffffffffffffffff1673ffffffffffffffffffffffffffffffffffffffff16815260200190815260200160002060009054906101000a900460ff1615151461061f576040517f08c379a000000000000000000000000000000000000000000000000000000000815260040161061690610a1c565b60405180910390fd5b662386f26fc10000341015610669576040517f08c379a0000000000000000000000000000000000000000000000000000000008152600401610660906109fc565b60405180910390fd5b34600160003373ffffffffffffffffffffffffffffffffffffffff1673ffffffffffffffffffffffffffffffffffffffff168152602001908152602001600020546106b49190610ac8565b600160003373ffffffffffffffffffffffffffffffffffffffff1673ffffffffffffffffffffffffffffffffffffffff1681526020019081526020016000208190555042600260003373ffffffffffffffffffffffffffffffffffffffff1673ffffffffffffffffffffffffffffffffffffffff168152602001908152602001600020546107429190610ac8565b600260003373ffffffffffffffffffffffffffffffffffffffff1673ffffffffffffffffffffffffffffffffffffffff168152602001908152602001600020819055506001600360003373ffffffffffffffffffffffffffffffffffffffff1673ffffffffffffffffffffffffffffffffffffffff16815260200190815260200160002060006101000a81548160ff0219169083151502179055503373ffffffffffffffffffffffffffffffffffffffff167f90890809c654f11d6e72a28fa60149770a0d11ec6c92319d6ceb2bb0a4ea1a153442604051610825929190610a57565b60405180910390a2565b60026020528060005260406000206000915090505481565b60008135905061085681610c83565b92915050565b60006020828403121561086e57600080fd5b600061087c84828501610847565b91505092915050565b61088e81610bdd565b82525050565b61089d81610bef565b82525050565b60006108b0601a83610ab7565b91507f4572726f722c206e6f2070726576696f7573206465706f7369740000000000006000830152602082019050919050565b60006108f0602183610ab7565b91507f4572726f722c6465706f736974206d757374206265203e3d20302e303120455460008301527f48000000000000000000000000000000000000000000000000000000000000006020830152604082019050919050565b6000610956601c83610ab7565b91507f4572726f72206465706f73697420616c726561647920616374697665000000006000830152602082019050919050565b61099281610c1b565b82525050565b60006040820190506109ad6000830185610885565b6109ba6020830184610989565b9392505050565b60006020820190506109d66000830184610894565b92915050565b600060208201905081810360008301526109f5816108a3565b9050919050565b60006020820190508181036000830152610a15816108e3565b9050919050565b60006020820190508181036000830152610a3581610949565b9050919050565b6000602082019050610a516000830184610989565b92915050565b6000604082019050610a6c6000830185610989565b610a796020830184610989565b9392505050565b6000606082019050610a956000830186610989565b610aa26020830185610989565b610aaf6040830184610989565b949350505050565b600082825260208201905092915050565b6000610ad382610c1b565b9150610ade83610c1b565b9250827fffffffffffffffffffffffffffffffffffffffffffffffffffffffffffffffff03821115610b1357610b12610c25565b5b828201905092915050565b6000610b2982610c1b565b9150610b3483610c1b565b925082610b4457610b43610c54565b5b828204905092915050565b6000610b5a82610c1b565b9150610b6583610c1b565b9250817fffffffffffffffffffffffffffffffffffffffffffffffffffffffffffffffff0483118215151615610b9e57610b9d610c25565b5b828202905092915050565b6000610bb482610c1b565b9150610bbf83610c1b565b925082821015610bd257610bd1610c25565b5b828203905092915050565b6000610be882610bfb565b9050919050565b60008115159050919050565b600073ffffffffffffffffffffffffffffffffffffffff82169050919050565b6000819050919050565b7f4e487b7100000000000000000000000000000000000000000000000000000000600052601160045260246000fd5b7f4e487b7100000000000000000000000000000000000000000000000000000000600052601260045260246000fd5b610c8c81610bdd565b8114610c9757600080fd5b5056fea2646970667358221220672f696876c85932ac112b374213601763ef2b9499527b6c049e8c8efb9d806264736f6c63430008000033",
  "immutableReferences": {},
  "source": "// SPDX-License-Identifier: GPL-3.0\r\npragma solidity ^0.8.0;\r\n\r\nimport \"./Token.sol\";\r\n\r\ncontract Pool {\r\n    Token private token;\r\n\r\n    event Deposit(address indexed user, uint256 etherAmount, uint256 timeStart);\r\n    event Withdraw(\r\n        address indexed user,\r\n        uint256 etherAmount,\r\n        uint256 depositTime,\r\n        uint256 interest\r\n    );\r\n\r\n    mapping(address => uint256) public etherBalanceOf;\r\n    mapping(address => uint256) public depositStart;\r\n    mapping(address => bool) public isDeposited;\r\n\r\n    constructor(Token _token) {\r\n        token = _token;\r\n    }\r\n\r\n    function deposit() public payable {\r\n        require(\r\n            isDeposited[msg.sender] == false,\r\n            \"Error deposit already active\"\r\n        );\r\n        require(msg.value >= 1e16, \"Error,deposit must be >= 0.01 ETH\");\r\n        etherBalanceOf[msg.sender] = etherBalanceOf[msg.sender] + msg.value;\r\n        depositStart[msg.sender] = depositStart[msg.sender] + block.timestamp;\r\n        isDeposited[msg.sender] = true;\r\n        emit Deposit(msg.sender, msg.value, block.timestamp);\r\n    }\r\n\r\n    function checkBalance(address _user) public view returns (uint256) {\r\n        return etherBalanceOf[_user];\r\n    }\r\n\r\n    function withdraw() public payable {\r\n        require(isDeposited[msg.sender] == true, \"Error, no previous deposit\");\r\n        uint256 userBalance = etherBalanceOf[msg.sender];\r\n        uint256 depositTime = block.timestamp - depositStart[msg.sender];\r\n\r\n        uint256 interestPerSecond = 31668017 *\r\n            (etherBalanceOf[msg.sender] / 1e16);\r\n        uint256 interest = interestPerSecond * depositTime;\r\n\r\n        payable(msg.sender).transfer(userBalance);\r\n        token.mint(msg.sender, interest);\r\n\r\n        etherBalanceOf[msg.sender] = 0;\r\n        depositStart[msg.sender] = 0;\r\n        isDeposited[msg.sender] = false;\r\n\r\n        emit Withdraw(msg.sender, userBalance, depositTime, interest);\r\n    }\r\n}\r\n",
  "sourcePath": "D:/Ethereum/HelpPool/src/contracts/Pool.sol",
  "compiler": {
    "name": "solc",
    "version": "0.8.0+commit.c7dfd78e.Emscripten.clang"
  },
  "schemaVersion": "3.3.4",
  "updatedAt": "2021-12-03T09:14:07.657Z",
  "networkType": "ethereum",
  "devdoc": {
    "kind": "dev",
    "methods": {},
    "version": 1
  },
  "userdoc": {
    "kind": "user",
    "methods": {},
    "version": 1
  }
}