{
  "contractName": "Token",
  "abi": [
    {
      "inputs": [],
      "stateMutability": "payable",
      "type": "constructor",
      "payable": true
    },
    {
      "anonymous": false,
      "inputs": [
        {
          "indexed": true,
          "internalType": "address",
          "name": "owner",
          "type": "address"
        },
        {
          "indexed": true,
          "internalType": "address",
          "name": "spender",
          "type": "address"
        },
        {
          "indexed": false,
          "internalType": "uint256",
          "name": "value",
          "type": "uint256"
        }
      ],
      "name": "Approval",
      "type": "event"
    },
    {
      "anonymous": false,
      "inputs": [
        {
          "indexed": true,
          "internalType": "address",
          "name": "from",
          "type": "address"
        },
        {
          "indexed": false,
          "internalType": "address",
          "name": "to",
          "type": "address"
        }
      ],
      "name": "MinterChanged",
      "type": "event"
    },
    {
      "anonymous": false,
      "inputs": [
        {
          "indexed": true,
          "internalType": "address",
          "name": "from",
          "type": "address"
        },
        {
          "indexed": true,
          "internalType": "address",
          "name": "to",
          "type": "address"
        },
        {
          "indexed": false,
          "internalType": "uint256",
          "name": "value",
          "type": "uint256"
        }
      ],
      "name": "Transfer",
      "type": "event"
    },
    {
      "inputs": [],
      "name": "admin",
      "outputs": [
        {
          "internalType": "address",
          "name": "",
          "type": "address"
        }
      ],
      "stateMutability": "view",
      "type": "function",
      "constant": true
    },
    {
      "inputs": [
        {
          "internalType": "address",
          "name": "owner",
          "type": "address"
        },
        {
          "internalType": "address",
          "name": "spender",
          "type": "address"
        }
      ],
      "name": "allowance",
      "outputs": [
        {
          "internalType": "uint256",
          "name": "",
          "type": "uint256"
        }
      ],
      "stateMutability": "view",
      "type": "function",
      "constant": true
    },
    {
      "inputs": [
        {
          "internalType": "address",
          "name": "spender",
          "type": "address"
        },
        {
          "internalType": "uint256",
          "name": "amount",
          "type": "uint256"
        }
      ],
      "name": "approve",
      "outputs": [
        {
          "internalType": "bool",
          "name": "",
          "type": "bool"
        }
      ],
      "stateMutability": "nonpayable",
      "type": "function"
    },
    {
      "inputs": [
        {
          "internalType": "address",
          "name": "account",
          "type": "address"
        }
      ],
      "name": "balanceOf",
      "outputs": [
        {
          "internalType": "uint256",
          "name": "",
          "type": "uint256"
        }
      ],
      "stateMutability": "view",
      "type": "function",
      "constant": true
    },
    {
      "inputs": [],
      "name": "decimals",
      "outputs": [
        {
          "internalType": "uint8",
          "name": "",
          "type": "uint8"
        }
      ],
      "stateMutability": "view",
      "type": "function",
      "constant": true
    },
    {
      "inputs": [
        {
          "internalType": "address",
          "name": "spender",
          "type": "address"
        },
        {
          "internalType": "uint256",
          "name": "subtractedValue",
          "type": "uint256"
        }
      ],
      "name": "decreaseAllowance",
      "outputs": [
        {
          "internalType": "bool",
          "name": "",
          "type": "bool"
        }
      ],
      "stateMutability": "nonpayable",
      "type": "function"
    },
    {
      "inputs": [
        {
          "internalType": "address",
          "name": "spender",
          "type": "address"
        },
        {
          "internalType": "uint256",
          "name": "addedValue",
          "type": "uint256"
        }
      ],
      "name": "increaseAllowance",
      "outputs": [
        {
          "internalType": "bool",
          "name": "",
          "type": "bool"
        }
      ],
      "stateMutability": "nonpayable",
      "type": "function"
    },
    {
      "inputs": [],
      "name": "name",
      "outputs": [
        {
          "internalType": "string",
          "name": "",
          "type": "string"
        }
      ],
      "stateMutability": "view",
      "type": "function",
      "constant": true
    },
    {
      "inputs": [],
      "name": "symbol",
      "outputs": [
        {
          "internalType": "string",
          "name": "",
          "type": "string"
        }
      ],
      "stateMutability": "view",
      "type": "function",
      "constant": true
    },
    {
      "inputs": [],
      "name": "totalSupply",
      "outputs": [
        {
          "internalType": "uint256",
          "name": "",
          "type": "uint256"
        }
      ],
      "stateMutability": "view",
      "type": "function",
      "constant": true
    },
    {
      "inputs": [
        {
          "internalType": "address",
          "name": "recipient",
          "type": "address"
        },
        {
          "internalType": "uint256",
          "name": "amount",
          "type": "uint256"
        }
      ],
      "name": "transfer",
      "outputs": [
        {
          "internalType": "bool",
          "name": "",
          "type": "bool"
        }
      ],
      "stateMutability": "nonpayable",
      "type": "function"
    },
    {
      "inputs": [
        {
          "internalType": "address",
          "name": "sender",
          "type": "address"
        },
        {
          "internalType": "address",
          "name": "recipient",
          "type": "address"
        },
        {
          "internalType": "uint256",
          "name": "amount",
          "type": "uint256"
        }
      ],
      "name": "transferFrom",
      "outputs": [
        {
          "internalType": "bool",
          "name": "",
          "type": "bool"
        }
      ],
      "stateMutability": "nonpayable",
      "type": "function"
    },
    {
      "inputs": [
        {
          "internalType": "address",
          "name": "pool",
          "type": "address"
        }
      ],
      "name": "passMinterRole",
      "outputs": [
        {
          "internalType": "bool",
          "name": "",
          "type": "bool"
        }
      ],
      "stateMutability": "nonpayable",
      "type": "function"
    },
    {
      "inputs": [
        {
          "internalType": "address",
          "name": "account",
          "type": "address"
        },
        {
          "internalType": "uint256",
          "name": "amount",
          "type": "uint256"
        }
      ],
      "name": "mint",
      "outputs": [],
      "stateMutability": "nonpayable",
      "type": "function"
    }
  ],
  "bytecode": "0x60806040526040518060400160405280600b81526020017f48502043757272656e63790000000000000000000000000000000000000000008152506040518060400160405280600281526020017f4850000000000000000000000000000000000000000000000000000000000000815250816003908051906020019062000088929190620000eb565b508060049080519060200190620000a1929190620000eb565b50505033600560006101000a81548173ffffffffffffffffffffffffffffffffffffffff021916908373ffffffffffffffffffffffffffffffffffffffff16021790555062000200565b828054620000f9906200019b565b90600052602060002090601f0160209004810192826200011d576000855562000169565b82601f106200013857805160ff191683800117855562000169565b8280016001018555821562000169579182015b82811115620001685782518255916020019190600101906200014b565b5b5090506200017891906200017c565b5090565b5b80821115620001975760008160009055506001016200017d565b5090565b60006002820490506001821680620001b457607f821691505b60208210811415620001cb57620001ca620001d1565b5b50919050565b7f4e487b7100000000000000000000000000000000000000000000000000000000600052602260045260246000fd5b6118d080620002106000396000f3fe608060405234801561001057600080fd5b50600436106100ea5760003560e01c806370a082311161008c578063a9059cbb11610066578063a9059cbb14610273578063d7fc5b15146102a3578063dd62ed3e146102d3578063f851a44014610303576100ea565b806370a08231146101f557806395d89b4114610225578063a457c2d714610243576100ea565b806323b872dd116100c857806323b872dd1461015b578063313ce5671461018b57806339509351146101a957806340c10f19146101d9576100ea565b806306fdde03146100ef578063095ea7b31461010d57806318160ddd1461013d575b600080fd5b6100f7610321565b6040516101049190611539565b60405180910390f35b6101276004803603810190610122919061107c565b6103b3565b604051610134919061151e565b60405180910390f35b6101456103d1565b604051610152919061169b565b60405180910390f35b6101756004803603810190610170919061102d565b6103db565b604051610182919061151e565b60405180910390f35b6101936104d3565b6040516101a091906116b6565b60405180910390f35b6101c360048036038101906101be919061107c565b6104dc565b6040516101d0919061151e565b60405180910390f35b6101f360048036038101906101ee919061107c565b610588565b005b61020f600480360381019061020a9190610fc8565b610626565b60405161021c919061169b565b60405180910390f35b61022d61066e565b60405161023a9190611539565b60405180910390f35b61025d6004803603810190610258919061107c565b610700565b60405161026a919061151e565b60405180910390f35b61028d6004803603810190610288919061107c565b6107eb565b60405161029a919061151e565b60405180910390f35b6102bd60048036038101906102b89190610fc8565b610809565b6040516102ca919061151e565b60405180910390f35b6102ed60048036038101906102e89190610ff1565b610933565b6040516102fa919061169b565b60405180910390f35b61030b6109ba565b6040516103189190611503565b60405180910390f35b606060038054610330906117cb565b80601f016020809104026020016040519081016040528092919081815260200182805461035c906117cb565b80156103a95780601f1061037e576101008083540402835291602001916103a9565b820191906000526020600020905b81548152906001019060200180831161038c57829003601f168201915b5050505050905090565b60006103c76103c06109e0565b84846109e8565b6001905092915050565b6000600254905090565b60006103e8848484610bb3565b6000600160008673ffffffffffffffffffffffffffffffffffffffff1673ffffffffffffffffffffffffffffffffffffffff16815260200190815260200160002060006104336109e0565b73ffffffffffffffffffffffffffffffffffffffff1673ffffffffffffffffffffffffffffffffffffffff168152602001908152602001600020549050828110156104b3576040517f08c379a00000000000000000000000000000000000000000000000000000000081526004016104aa906115db565b60405180910390fd5b6104c7856104bf6109e0565b8584036109e8565b60019150509392505050565b60006012905090565b600061057e6104e96109e0565b8484600160006104f76109e0565b73ffffffffffffffffffffffffffffffffffffffff1673ffffffffffffffffffffffffffffffffffffffff16815260200190815260200160002060008873ffffffffffffffffffffffffffffffffffffffff1673ffffffffffffffffffffffffffffffffffffffff1681526020019081526020016000205461057991906116ed565b6109e8565b6001905092915050565b600560009054906101000a900473ffffffffffffffffffffffffffffffffffffffff1673ffffffffffffffffffffffffffffffffffffffff163373ffffffffffffffffffffffffffffffffffffffff1614610618576040517f08c379a000000000000000000000000000000000000000000000000000000000815260040161060f906115bb565b60405180910390fd5b6106228282610e34565b5050565b60008060008373ffffffffffffffffffffffffffffffffffffffff1673ffffffffffffffffffffffffffffffffffffffff168152602001908152602001600020549050919050565b60606004805461067d906117cb565b80601f01602080910402602001604051908101604052809291908181526020018280546106a9906117cb565b80156106f65780601f106106cb576101008083540402835291602001916106f6565b820191906000526020600020905b8154815290600101906020018083116106d957829003601f168201915b5050505050905090565b6000806001600061070f6109e0565b73ffffffffffffffffffffffffffffffffffffffff1673ffffffffffffffffffffffffffffffffffffffff16815260200190815260200160002060008573ffffffffffffffffffffffffffffffffffffffff1673ffffffffffffffffffffffffffffffffffffffff168152602001908152602001600020549050828110156107cc576040517f08c379a00000000000000000000000000000000000000000000000000000000081526004016107c39061165b565b60405180910390fd5b6107e06107d76109e0565b858584036109e8565b600191505092915050565b60006107ff6107f86109e0565b8484610bb3565b6001905092915050565b6000600560009054906101000a900473ffffffffffffffffffffffffffffffffffffffff1673ffffffffffffffffffffffffffffffffffffffff163373ffffffffffffffffffffffffffffffffffffffff161461089b576040517f08c379a00000000000000000000000000000000000000000000000000000000081526004016108929061163b565b60405180910390fd5b81600560006101000a81548173ffffffffffffffffffffffffffffffffffffffff021916908373ffffffffffffffffffffffffffffffffffffffff1602179055503373ffffffffffffffffffffffffffffffffffffffff167f3b0007eb941cf645526cbb3a4fdaecda9d28ce4843167d9263b536a1f1edc0f6836040516109229190611503565b60405180910390a260019050919050565b6000600160008473ffffffffffffffffffffffffffffffffffffffff1673ffffffffffffffffffffffffffffffffffffffff16815260200190815260200160002060008373ffffffffffffffffffffffffffffffffffffffff1673ffffffffffffffffffffffffffffffffffffffff16815260200190815260200160002054905092915050565b600560009054906101000a900473ffffffffffffffffffffffffffffffffffffffff1681565b600033905090565b600073ffffffffffffffffffffffffffffffffffffffff168373ffffffffffffffffffffffffffffffffffffffff161415610a58576040517f08c379a0000000000000000000000000000000000000000000000000000000008152600401610a4f9061161b565b60405180910390fd5b600073ffffffffffffffffffffffffffffffffffffffff168273ffffffffffffffffffffffffffffffffffffffff161415610ac8576040517f08c379a0000000000000000000000000000000000000000000000000000000008152600401610abf9061157b565b60405180910390fd5b80600160008573ffffffffffffffffffffffffffffffffffffffff1673ffffffffffffffffffffffffffffffffffffffff16815260200190815260200160002060008473ffffffffffffffffffffffffffffffffffffffff1673ffffffffffffffffffffffffffffffffffffffff168152602001908152602001600020819055508173ffffffffffffffffffffffffffffffffffffffff168373ffffffffffffffffffffffffffffffffffffffff167f8c5be1e5ebec7d5bd14f71427d1e84f3dd0314c0f7b2291e5b200ac8c7c3b92583604051610ba6919061169b565b60405180910390a3505050565b600073ffffffffffffffffffffffffffffffffffffffff168373ffffffffffffffffffffffffffffffffffffffff161415610c23576040517f08c379a0000000000000000000000000000000000000000000000000000000008152600401610c1a906115fb565b60405180910390fd5b600073ffffffffffffffffffffffffffffffffffffffff168273ffffffffffffffffffffffffffffffffffffffff161415610c93576040517f08c379a0000000000000000000000000000000000000000000000000000000008152600401610c8a9061155b565b60405180910390fd5b610c9e838383610f94565b60008060008573ffffffffffffffffffffffffffffffffffffffff1673ffffffffffffffffffffffffffffffffffffffff16815260200190815260200160002054905081811015610d24576040517f08c379a0000000000000000000000000000000000000000000000000000000008152600401610d1b9061159b565b60405180910390fd5b8181036000808673ffffffffffffffffffffffffffffffffffffffff1673ffffffffffffffffffffffffffffffffffffffff16815260200190815260200160002081905550816000808573ffffffffffffffffffffffffffffffffffffffff1673ffffffffffffffffffffffffffffffffffffffff1681526020019081526020016000206000828254610db791906116ed565b925050819055508273ffffffffffffffffffffffffffffffffffffffff168473ffffffffffffffffffffffffffffffffffffffff167fddf252ad1be2c89b69c2b068fc378daa952ba7f163c4a11628f55a4df523b3ef84604051610e1b919061169b565b60405180910390a3610e2e848484610f99565b50505050565b600073ffffffffffffffffffffffffffffffffffffffff168273ffffffffffffffffffffffffffffffffffffffff161415610ea4576040517f08c379a0000000000000000000000000000000000000000000000000000000008152600401610e9b9061167b565b60405180910390fd5b610eb060008383610f94565b8060026000828254610ec291906116ed565b92505081905550806000808473ffffffffffffffffffffffffffffffffffffffff1673ffffffffffffffffffffffffffffffffffffffff1681526020019081526020016000206000828254610f1791906116ed565b925050819055508173ffffffffffffffffffffffffffffffffffffffff16600073ffffffffffffffffffffffffffffffffffffffff167fddf252ad1be2c89b69c2b068fc378daa952ba7f163c4a11628f55a4df523b3ef83604051610f7c919061169b565b60405180910390a3610f9060008383610f99565b5050565b505050565b505050565b600081359050610fad8161186c565b92915050565b600081359050610fc281611883565b92915050565b600060208284031215610fda57600080fd5b6000610fe884828501610f9e565b91505092915050565b6000806040838503121561100457600080fd5b600061101285828601610f9e565b925050602061102385828601610f9e565b9150509250929050565b60008060006060848603121561104257600080fd5b600061105086828701610f9e565b935050602061106186828701610f9e565b925050604061107286828701610fb3565b9150509250925092565b6000806040838503121561108f57600080fd5b600061109d85828601610f9e565b92505060206110ae85828601610fb3565b9150509250929050565b6110c181611743565b82525050565b6110d081611755565b82525050565b60006110e1826116d1565b6110eb81856116dc565b93506110fb818560208601611798565b6111048161185b565b840191505092915050565b600061111c6023836116dc565b91507f45524332303a207472616e7366657220746f20746865207a65726f206164647260008301527f65737300000000000000000000000000000000000000000000000000000000006020830152604082019050919050565b60006111826022836116dc565b91507f45524332303a20617070726f766520746f20746865207a65726f20616464726560008301527f73730000000000000000000000000000000000000000000000000000000000006020830152604082019050919050565b60006111e86026836116dc565b91507f45524332303a207472616e7366657220616d6f756e742065786365656473206260008301527f616c616e636500000000000000000000000000000000000000000000000000006020830152604082019050919050565b600061124e602b836116dc565b91507f4572726f722c206d73672e73656e64657220646f6573206e6f7420686176652060008301527f6d696e74657220726f6c650000000000000000000000000000000000000000006020830152604082019050919050565b60006112b46028836116dc565b91507f45524332303a207472616e7366657220616d6f756e742065786365656473206160008301527f6c6c6f77616e63650000000000000000000000000000000000000000000000006020830152604082019050919050565b600061131a6025836116dc565b91507f45524332303a207472616e736665722066726f6d20746865207a65726f20616460008301527f64726573730000000000000000000000000000000000000000000000000000006020830152604082019050919050565b60006113806024836116dc565b91507f45524332303a20617070726f76652066726f6d20746865207a65726f2061646460008301527f72657373000000000000000000000000000000000000000000000000000000006020830152604082019050919050565b60006113e6602d836116dc565b91507f4572726f722c206f6e6c79206f776e65722063616e206368616e67652070617360008301527f73206d696e74657220726f6c65000000000000000000000000000000000000006020830152604082019050919050565b600061144c6025836116dc565b91507f45524332303a2064656372656173656420616c6c6f77616e63652062656c6f7760008301527f207a65726f0000000000000000000000000000000000000000000000000000006020830152604082019050919050565b60006114b2601f836116dc565b91507f45524332303a206d696e7420746f20746865207a65726f2061646472657373006000830152602082019050919050565b6114ee81611781565b82525050565b6114fd8161178b565b82525050565b600060208201905061151860008301846110b8565b92915050565b600060208201905061153360008301846110c7565b92915050565b6000602082019050818103600083015261155381846110d6565b905092915050565b600060208201905081810360008301526115748161110f565b9050919050565b6000602082019050818103600083015261159481611175565b9050919050565b600060208201905081810360008301526115b4816111db565b9050919050565b600060208201905081810360008301526115d481611241565b9050919050565b600060208201905081810360008301526115f4816112a7565b9050919050565b600060208201905081810360008301526116148161130d565b9050919050565b6000602082019050818103600083015261163481611373565b9050919050565b60006020820190508181036000830152611654816113d9565b9050919050565b600060208201905081810360008301526116748161143f565b9050919050565b60006020820190508181036000830152611694816114a5565b9050919050565b60006020820190506116b060008301846114e5565b92915050565b60006020820190506116cb60008301846114f4565b92915050565b600081519050919050565b600082825260208201905092915050565b60006116f882611781565b915061170383611781565b9250827fffffffffffffffffffffffffffffffffffffffffffffffffffffffffffffffff03821115611738576117376117fd565b5b828201905092915050565b600061174e82611761565b9050919050565b60008115159050919050565b600073ffffffffffffffffffffffffffffffffffffffff82169050919050565b6000819050919050565b600060ff82169050919050565b60005b838110156117b657808201518184015260208101905061179b565b838111156117c5576000848401525b50505050565b600060028204905060018216806117e357607f821691505b602082108114156117f7576117f661182c565b5b50919050565b7f4e487b7100000000000000000000000000000000000000000000000000000000600052601160045260246000fd5b7f4e487b7100000000000000000000000000000000000000000000000000000000600052602260045260246000fd5b6000601f19601f8301169050919050565b61187581611743565b811461188057600080fd5b50565b61188c81611781565b811461189757600080fd5b5056fea26469706673582212209242eae6e720a4b12cef51d3025dbdf3b603491e555eaedd24957ecff662900464736f6c63430008000033",
  "immutableReferences": {},
  "source": "// SPDX-License-Identifier: GPL-3.0\r\n\r\npragma solidity ^0.8.0;\r\n\r\nimport \"openzeppelin-solidity/contracts/token/ERC20/ERC20.sol\";\r\n\r\ncontract Token is ERC20 {\r\n    address public admin;\r\n\r\n    event MinterChanged(address indexed from, address to);\r\n\r\n    constructor() payable ERC20(\"HP Currency\", \"HP\") {\r\n        admin = msg.sender; //only initially\r\n    }\r\n\r\n    function passMinterRole(address pool) public returns (bool) {\r\n        require(\r\n            msg.sender == admin,\r\n            \"Error, only owner can change pass minter role\"\r\n        );\r\n        admin = pool;\r\n\r\n        emit MinterChanged(msg.sender, pool);\r\n        return true;\r\n    }\r\n\r\n    function mint(address account, uint256 amount) public {\r\n        require(\r\n            msg.sender == admin,\r\n            \"Error, msg.sender does not have minter role\"\r\n        ); //dBank\r\n        _mint(account, amount);\r\n    }\r\n}\r\n",
  "sourcePath": "D:\\Ethereum\\HelpPool\\src\\contracts\\Token.sol",
  "compiler": {
    "name": "solc",
    "version": "0.8.0+commit.c7dfd78e.Emscripten.clang"
  },
  "schemaVersion": "3.3.4",
  "updatedAt": "2021-11-28T10:10:04.486Z",
  "networkType": "ethereum",
  "devdoc": {
    "kind": "dev",
    "methods": {
      "allowance(address,address)": {
        "details": "See {IERC20-allowance}."
      },
      "approve(address,uint256)": {
        "details": "See {IERC20-approve}. Requirements: - `spender` cannot be the zero address."
      },
      "balanceOf(address)": {
        "details": "See {IERC20-balanceOf}."
      },
      "decimals()": {
        "details": "Returns the number of decimals used to get its user representation. For example, if `decimals` equals `2`, a balance of `505` tokens should be displayed to a user as `5.05` (`505 / 10 ** 2`). Tokens usually opt for a value of 18, imitating the relationship between Ether and Wei. This is the value {ERC20} uses, unless this function is overridden; NOTE: This information is only used for _display_ purposes: it in no way affects any of the arithmetic of the contract, including {IERC20-balanceOf} and {IERC20-transfer}."
      },
      "decreaseAllowance(address,uint256)": {
        "details": "Atomically decreases the allowance granted to `spender` by the caller. This is an alternative to {approve} that can be used as a mitigation for problems described in {IERC20-approve}. Emits an {Approval} event indicating the updated allowance. Requirements: - `spender` cannot be the zero address. - `spender` must have allowance for the caller of at least `subtractedValue`."
      },
      "increaseAllowance(address,uint256)": {
        "details": "Atomically increases the allowance granted to `spender` by the caller. This is an alternative to {approve} that can be used as a mitigation for problems described in {IERC20-approve}. Emits an {Approval} event indicating the updated allowance. Requirements: - `spender` cannot be the zero address."
      },
      "name()": {
        "details": "Returns the name of the token."
      },
      "symbol()": {
        "details": "Returns the symbol of the token, usually a shorter version of the name."
      },
      "totalSupply()": {
        "details": "See {IERC20-totalSupply}."
      },
      "transfer(address,uint256)": {
        "details": "See {IERC20-transfer}. Requirements: - `recipient` cannot be the zero address. - the caller must have a balance of at least `amount`."
      },
      "transferFrom(address,address,uint256)": {
        "details": "See {IERC20-transferFrom}. Emits an {Approval} event indicating the updated allowance. This is not required by the EIP. See the note at the beginning of {ERC20}. Requirements: - `sender` and `recipient` cannot be the zero address. - `sender` must have a balance of at least `amount`. - the caller must have allowance for ``sender``'s tokens of at least `amount`."
      }
    },
    "version": 1
  },
  "userdoc": {
    "kind": "user",
    "methods": {},
    "version": 1
  }
}